:100000000C94A60E0C94D70E0C94D70E0C94D70E0D
:100010000C94D70E0C94D70E0C94D70E0C94D70ECC
:100020000C94D70E0C94D70E0C94D70E0C94D70EBC
:100030000C94D70E0C94D70E0C94D70E0C94D70EAC
:100040000C94D70E0C94E97E0C94D70E0C94D70E1A
:100050000C94D70E0C94D70E0C9470780C948E6080
:100060000C94D70E0C94903A0C94863A0C94D70EBC
:100070000C94D70E0C94D70E0C94D70E0C94D70E6C
:100080000C94D70E0C94D70E0C94D70E0C94D70E5C
:100090000C94D70E0C94D70E0C94D70E0C94D70E4C
:1000A0000C94D70E0C94D70E0C94D70E0C94D70E3C
:1000B0000C94D70E0C94D70E0C94D70E0C94D70E2C
:1000C0000C94D70E0C94D70E0C94D70E0C94D70E1C
:1000D0000C94D70E0C94D70E0C94D70E0C94D70E0C
:1000E0000C94D70E915E945E835E875E8D5ECB5ED0
:1000F000985E9C5EA25EA65EAA5EB05EB45EB85ECE
:10010000CB5EBE5EC25EC65EAA5FAF5FB45FBE5F1F
:10011000C85F4160D25FDA5FE25FEC5FF65F00606C
:100120000F601960416023602D603760084AD73B3B
:100130003BCE016E84BCBFFDC12F3D6C74319ABDB6
:1001400056833DDA3D00C77F11BED9E4BB4C3E91DA
:100150006BAAAABE000000803F05A84CCDB2D44EC9
:10016000B93836A9020C50B9918688083CA6AAAACB
:100170002ABE000000803F004E414E494E4954596E
:10018000494E46CDCCCC3D0AD7233C17B7D1387762
:10019000CC2B329595E6241FB14F0A000020410078
:1001A00000C84200401C4620BCBE4CCA1B0E5AAEC2
:1001B000C59D74434F4D4D554E49434154494F4E93
:1001C0000044525952554E004552524F5253004925
:1001D0004E464F004543484F006F6B00496E7661B5
:1001E0006C69642065787472756465720A003F4BAF
:1001F0002076616C7565206F7574206F6620726162
:100200006E67652028302D3130292E0A0041647632
:10021000616E6365204B3D00454550524F4D204F68
:100220004B0A00486F6D65202573257325732046A2
:100230006972737400546F6F206661722066726F0A
:100240006D207265666572656E636520706F696E9C
:10025000740A00000000000000A0C000000000645C
:10026000697300656E0043290A0061626C65642051
:10027000286D696E2074656D702000436F6C64207A
:1002800065787472756465732061726520002064FE
:100290003A0020693A0020703A00496E76616C6934
:1002A000642065787472756465720A0020643A008F
:1002B00020693A0020703A0050726F6265204F66E4
:1002C00066736574205A0050726F6265204F6666CF
:1002D0007365745A3A200020466C6F773A20004FBD
:1002E0004646004F4E00205A00205900205800205A
:1002F000204D61783A2000200020204D696E3A2080
:1003000000536F667420656E6473746F70733A2067
:10031000003F4A206F7574206F662072616E6765BA
:100320002028302E303120746F20302E33290A00DF
:10033000205400205200416363656C6572617469EA
:100340006F6E3A2050002F2F20004348414D424508
:10035000525F54454D5045524154555245004D4F02
:1003600054494F4E5F4D4F44455300544845524DFC
:10037000414C5F50524F54454354494F4E004155F4
:10038000544F5245504F52545F53445F535441545D
:1003900055530050524F4D50545F535550504F528B
:1003A0005400454D455247454E43595F50415253C5
:1003B000455200434153455F4C494748545F4252C0
:1003C000494748544E45535300544F47474C455FA7
:1003D0004C494748545300534F4654574152455F88
:1003E000504F574552004255494C445F5045524387
:1003F000454E54004C4556454C494E475F44415488
:1004000041005A5F50524F4245004155544F4C45B0
:1004100056454C005052494E545F4A4F420050528C
:100420004F4752455353004155544F5245504F5238
:10043000545F54454D5000564F4C554D455452490C
:100440004300454550524F4D0042494E4152595F7D
:1004500046494C455F5452414E5346455200534520
:100460005249414C5F584F4E5F584F4646004649EF
:10047000524D574152455F4E414D453A4D61726C68
:10048000696E20322E302E342E3441535758312D80
:1004900046572D4D4F442D76312E3120534F555216
:1004A00043455F434F44455F55524C3A68747470FE
:1004B000733A2F2F6769746875622E636F6D2F70A2
:1004C000696E6775696E70666C656765722F4153FA
:1004D0005758312D46572D4D4F442050524F544FB1
:1004E000434F4C5F56455253494F4E3A312E3020C0
:1004F0004D414348494E455F545950453A33442095
:100500005072696E74657220455854525544455274
:100510005F434F554E543A3120555549443A63652F
:100520006465326132662D343161322D34373438AE
:100530002D396231322D63353563363266333637C5
:1005400066660A004D3131332053004D313132207F
:1005500053687574646F776E006F666600D401CF60
:1005600001C801C101B30144454255473A006F6BD0
:100570000050726F7465637465642050696E0A0080
:100580002569730025696D20256973002569682038
:1005900025696D2025697300256964202569682017
:1005A00025696D20256973002569792025696420F6
:1005B0002569682025696D20256973005072696E70
:1005C000742074696D653A200050726F62696E67BD
:1005D000204661696C65640A00205A3A200020595F
:1005E0003A200042656420583A2000000070420022
:1005F00000704200002041000096430080984300B4
:1006000000C843FFFFFF47322F4733206261642059
:10061000706172616D65746572730A0020746F6F2A
:10062000206C6F6E6720657874727573696F6E20C9
:1006300070726576656E7465640A0020636F6C6421
:1006400020657874727573696F6E20707265766557
:100650006E7465640A0024F4D43050C38E20C2A2A4
:100660004017828B7011127A910D816CD90AA861A2
:10067000E108C7586607615143061E4B5D05C14539
:10068000A7041A411104093D98037139310340361A
:10069000DB0265339102D4305402802E1D02632C9C
:1006A000EE01752AC501B028A001102781018F2510
:1006B00064012B244B01E0223401AC211F018D2069
:1006C0000D01801FFC00841EED00971DDF00B81C8B
:1006D000D200E61BC600201BBC00641AB200B2198F
:1006E000A8000A19A0006A189900D11791004017B4
:1006F0008B00B516840031167E00B31579003A15CB
:100700007300C7146F0058146A00EE136600881354
:10071000630025135E00C7125B006C1257001512B0
:100720005400C111510070114F0021114B00D6101F
:1007300049008D1047004610440002104200C00FCF
:100740004000800F3E00420F3C00060F3B00CB0EE6
:100750003800930E37005C0E3500270E3400F30D81
:100760003200C10D3100900D3000600D2E00320DB1
:100770002D00050D2C00D90C2B00AE0C2900850C8A
:1007800029005C0C2700350C27000E0C2600E80B16
:100790002400C40B2400A00B23007D0B23005A0B64
:1007A0002100390B2100180B2000F80A1F00D90A7C
:1007B0001E00BB0A1E009D0A1D00800A1D00630A60
:1007C0001C00470A1B002C0A1B00110A1A00F7091B
:1007D0001A00DD091900C4091900AB0919009209B2
:1007E00017007B091800630917004C091600360929
:1007F0001600200916000A091500F5081500E00882
:100800001400CC081400B8081400A40814009008C0
:1008100013007D0812006B081300580812004608E8
:1008200012003408110023081100120811000108F9
:100830001100F0071000E0071000D0071000C007FB
:100840001000B0070F00A107100091070E008307EA
:100850000F0074070F0065070E0057070E004907C9
:100860000E003B070D002E070E0020070D0013079A
:100870000D0006070D00F9060C00ED060D00E00660
:100880000C00D4060C00C8060C00BC060C00B00618
:100890000C00A4060B0099060C008D060B008206C6
:1008A0000B0077060B006C060B0061060A0057066A
:1008B0000B004C060A0042060A0038060A002E0603
:1008C0000A0024060A001A060A0010060900070694
:1008D0000A00FD050900F4050900EB050900E20521
:1008E0000900D9050900D0050900C7050900BE05A2
:1008F0000900B5050800AD050800A50509009C051F
:100900000800940508008C050800840508007C0593
:100910000800740508006C050700650508005D0502
:100920000700560508004E0507004705070040056B
:10093000080038050700310507002A0507002305D0
:1009400007001C050600160507000F05070008052F
:10095000060002050700FB040600F5040700EE048C
:100960000600E8040600E2040700DB040600D504E4
:100970000600CF040600C9040600C3040600BD0437
:100980000600B7040600B1040500AC040600A60486
:100990000600A00405009B040600950405009004D1
:1009A00006008A04050085040500800406007A0418
:1009B000050075040500700405006B04050066045D
:1009C0000500610405005C0405005704050052049D
:1009D00005004D04050048040500430405003E04DD
:1009E00004003A04050035040500300404002C041A
:1009F000050027040400230405001E0404001A0453
:100A0000040016040500110404000D040400090488
:100A100005000404040000040400FC030400F803BF
:100A20000400F4030400F0030400EC030400E803F2
:100A30000400E4030400E0030400DC030400D80322
:100A40000400D4030400D0030400CC030400C80352
:100A50000300C503030024F404D9201BC40C5C0E5E
:100A60009804C4095F0265077101F405F900FB04ED
:100A7000B30048048700C10369005803550003030D
:100A80004500BE023A008402310053022A002902C6
:100A9000250004022000E4011C00C8011900AF0178
:100AA0001700980114008401130071011000610106
:100AB000100051010E0043010D0036010B002B0107
:100AC0000B0020010B00150109000C0109000301B6
:100AD0000800FB000800F3000800EB000700E4003A
:100AE0000600DE000600D8000600D2000600CC009A
:100AF0000500C7000500C2000500BD000400B900E4
:100B00000400B5000400B1000400AD000400A90019
:100B10000400A5000300A20003009F0004009B0046
:100B2000030098000300950002009300030090006A
:100B300003008D0002008B00030088000200860085
:100B4000020084000300810002007F0002007D009B
:100B500002007B00020079000200770001007600AD
:100B600002007400020072000100710002006F00B8
:100B700002006D0001006C0002006A0001006900C3
:100B800002006700010066000100650001006400CA
:100B900002006200010061000100600001005F00CE
:100BA00002005D0001005C0001005B0001005A00D2
:100BB00001005900010058000100570001005600D3
:100BC00001005500010054000100530000005300D3
:100BD00001005200010051000100500001004F00CF
:100BE00001004E0000004E0001004D0001004C00CD
:100BF00001004B0000004B0001004A0001004900C9
:100C000001004800000048000100470001004600C4
:100C100000004600010045000000450001004400BE
:100C200001004300000043000100420000004200B8
:100C300001004100000041000100400001003F00B0
:100C400000003F0001003E0000003E0001003D00AA
:100C500000003D0001003C0000003C0000003C00A2
:100C600001003B0000003B0001003A0000003A0098
:100C70000100390000003900010038000000380090
:100C80000000380001003700000037000100360086
:100C9000000036000000360001003500000035007D
:100CA0000000350001003400000034000000340072
:100CB0000100330000003300000033000100320067
:100CC000000032000000320001003100000031005D
:100CD0000000310001003000000030000000300052
:100CE00001002F0000002F0000002F0000002F0047
:100CF00001002E0000002E0000002E0001002D003B
:100D000000002D0000002D0000002D0001002C002F
:100D100000002C0000002C0000002C0001002B0023
:100D200000002B0000002B0000002B0001002A0017
:100D300000002A0000002A0000002A00010029000B
:100D400000002900000029000000290000002900FF
:100D500001002800000028000000280000002800F2
:100D600000002800010027000000270000002700E5
:100D700000002700000027000100260000002600D8
:100D800000002600000026000000260001002500CB
:100D900000002500000025000000250000002500BF
:100DA00000002500010024000000240000002400B1
:100DB00000002400000024000100230000002300A4
:100DC0000000230000002300000023000000230097
:100DD0000000230001002200000022000000220089
:100DE000000022000000220000002200010021007B
:100DF000000021000000210000002100000021006F
:100E0000000021000000210001002000000020005F
:100E10000000200000002000000020000000200052
:100E2000000020000000200001001F0000001F0043
:100E300000001F0000001F0000001F0000001F0036
:100E400000001F0001001E0000001E0000001E0028
:100E500000001E000000232C0000B82200005618DD
:100E600000003A0F0000B8080000B1040000710251
:100E700000003E0100004572726F72207772697443
:100E8000696E6720746F20454550524F4D210A000E
:100E9000363726033C3D380E2E303E1224221E1AD1
:100EA0001C1808440A074308090700016275737992
:100EB0003A2070617573656420666F7220696E7088
:100EC00075740A00627573793A2070617573656490
:100ED00020666F7220757365720A00627573793AC5
:100EE0002070726F63657373696E670A0021212039
:100EF0004B494C4C206361757365642062792074A2
:100F00006F6F206D75636820696E616374697665C3
:100F10002074696D65202D2063757272656E742072
:100F2000636F6D6D616E643A20005072696E746516
:100F3000722073746F707065642064756520746FBF
:100F4000206572726F72732E20466978207468650E
:100F5000206572726F7220616E6420757365204D1A
:100F600039393920746F20726573746172742E2060
:100F70002854656D7065726174757265206973209F
:100F800072657365742E20536574206974206166E0
:100F90007465722072657374617274696E67290A70
:100FA000004E6F20436865636B73756D20776974BD
:100FB00068206C696E65206E756D6265722C204CC0
:100FC000617374204C696E653A2000636865636BD9
:100FD00073756D206D69736D617463682C204C614D
:100FE0007374204C696E653A20004C696E65204E22
:100FF000756D626572206973206E6F74204C617329
:1010000074204C696E65204E756D6265722B312CB3
:10101000204C617374204C696E653A20004D31316B
:1010200030005072696E7465722068616C7465641A
:101030002E206B696C6C28292063616C6C656421BF
:101040000A006563686F3A004572726F723A002059
:101050004D393220580020496E76616C69642065F4
:101060007874727564657220004361703A00290AD1
:101070000020746F20003F5A206F7574206F662027
:1010800072616E6765202800290A0020746F2000B5
:101090003F59206F7574206F662072616E676520FE
:1010A000282D00290A0020746F20003F58206F75FA
:1010B00074206F662072616E676520282D00507263
:1010C0006F6265204F6666736574205800526573C1
:1010D000656E643A200020573A0020573A00207489
:1010E0006F6F206C6F6E6720657874727573696FAF
:1010F0006E2070726576656E7465640A0020636F99
:101100006C6420657874727573696F6E2070726597
:1011100076656E7465640A00454550524F4D2064F3
:1011200061746173697A65206572726F722E0A004C
:10113000290A002062797465733B20637263200082
:101140002073746F7265642073657474696E67735D
:1011500020726574726965766564202800202863B2
:10116000616C63756C6174656429210A0020213DFE
:101170002000454550524F4D20435243206D697326
:101180006D61746368202D202873746F7265642903
:1011900020002053697A653A2000496E6465783AE8
:1011A0002000204D61726C696E3D563736290A0069
:1011B000454550524F4D2076657273696F6E206DB4
:1011C00069736D617463682028454550524F4D3DE9
:1011D0000048617264636F6465642044656661758C
:1011E0006C742053657474696E6773204C6F61640E
:1011F00065640A00000096430000964300004842E0
:1012000000002042F43DA042F43DA04296E3C743D3
:101210000080DE43D0070000D0070000640000001B
:10122000102700003B20003A0A0020204D393030C2
:10123000204B004C696E65617220416476616E637B
:10124000653A0020204D3835312058005A2D507213
:101250006F6265204F666673657400204400204904
:101260000020204D3330342050002044002049001D
:1012700020204D3330312050005049442073657494
:1012800074696E67733A0020204D32303620580062
:10129000486F6D65206F66667365743A00204A007A
:1012A00020530020204D32303520420041647661C9
:1012B0006E6365643A20423C6D696E5F7365676D6D
:1012C000656E745F74696D655F75733E20533C6D28
:1012D000696E5F66656564726174653E20543C6D3D
:1012E000696E5F74726176656C5F66656564726174
:1012F00074653E204A3C6A756E635F6465763E00A5
:1013000020520020204D323034205000416363656C
:101310006C65726174696F6E2028756E6974732FC5
:101320007332293A20503C7072696E745F61636356
:10133000656C3E20523C726574726163745F6163D8
:1013400063656C3E20543C74726176656C5F6163CA
:1013500063656C3E0020204D3230312058004D61D5
:1013600078696D756D20416363656C657261746940
:101370006F6E2028756E6974732F7332293A0020BE
:10138000450020204D3230332058004D6178696D82
:10139000756D206665656472617465732028756E6D
:1013A0006974732F73293A005374657073207065E4
:1013B0007220756E69743A0020204D32303020441E
:1013C000300A0020204D3230302044002044697320
:1013D00061626C65640A0046696C616D656E7420BB
:1013E00073657474696E67733A0020286D6D290007
:1013F0002020473231202020203B20556E69747315
:1014000020696E206D6D00486F6D696E67204661C2
:10141000696C6564002042403A0020403A00202078
:10142000506C616E6E657242756666657242797463
:1014300065733A20002046726565204D656D6F72B8
:10144000793A2000436F6D70696C65643A204D6194
:101450007220203520323032300A00204C61737403
:1014600020557064617465643A20323032302D301A
:10147000322D3237207C20417574686F723A2028F3
:1014800070696E6775696E70666C65676572264611
:101490006F6F64466967687465722C2041535758B2
:1014A000312D46572D4D4F44290A00322E302E340F
:1014B0002E340A004D61726C696E0020536F6674A1
:1014C000776172652052657365740A0020576174F4
:1014D0006368646F672052657365740A0020427206
:1014E0006F776E206F75742052657365740A0020E3
:1014F00045787465726E616C2052657365740A007C
:10150000506F77657255700A0073746172740A00C7
:10151000205A3A0020593A0020583A00656E647308
:10152000746F7073206869743A20000000210024F1
:101530000027002A002D00300033000101000004C4
:101540000107010A0100002200250028002B002EBF
:10155000003100340002010000050108010B010008
:101560000020002300260029002C002F003200005C
:10157000010000030106010901050505050705082D
:10158000080808020202020A0A0808040404040106
:101590000101010101010103030303030303030428
:1015A0000707070C0C0C0C0C0C0C0C0202020206B8
:1015B000060606060606060B0B0B0B0B0B0B0B01A8
:1015C0000210202008081020401020408002010254
:1015D000010804020101020408102040808040201C
:1015E0001008040201800402018040201008040257
:1015F00001080402010102040810204080010204D5
:10160000081020408000000A0B02090C0D0E08078C
:1016100003040100000000000000000000000000C2
:1016200000000000000000000000000000000000BA
:101630000012111000000000000000000000000077
:1016400000000000000000000000002364656669DF
:101650006E652044454641554C545F000062656408
:10166000004B6420004B6920004B7020005049441F
:10167000204175746F74756E652066696E69736854
:101680006564212050757420746865206C617374E2
:10169000204B702C204B6920616E64204B642063CA
:1016A0006F6E7374616E74732066726F6D20626505
:1016B0006C6F7720696E746F20436F6E6669677513
:1016C000726174696F6E2E680A005049442041753A
:1016D000746F74756E65206661696C656421207431
:1016E000696D656F75740A00504944204175746FC7
:1016F00074756E65206661696C6564212054656D42
:10170000706572617475726520746F6F20686967A7
:10171000680A00204B643A2000204B693A200020E0
:101720004B703A20000A20436C6173736963205048
:101730004944200A00204B643A2000204B693A209B
:1017400000204B703A20000A204E6F206F766572A1
:1017500073686F6F740A002054753A2000204B752F
:101760003A2000206D61783A2000206D696E3A20A1
:101770000020643A200020626961733A20005049D9
:1017800044204175746F74756E6520737461727452
:101790000A00504944204175746F74756E65206667
:1017A00061696C6564212054656D70657261747542
:1017B000726520746F6F20686967680A0050494439
:1017C000204175746F74756E65206661696C65641F
:1017D0002120426164206578747275646572206EA0
:1017E000756D6265720A0000009643000096430022
:1017F00000C843000000000000A0C0000000002955
:101800000A002062797465733B2063726320005381
:10181000657474696E67732053746F7265642028F1
:10182000006F70656E005452494747455245440069
:101830003A20007A5F6D696E00795F6D696E00789D
:101840005F6D696E005265706F7274696E672065B6
:101850006E6473746F70207374617475730A002002
:101860005A3A0020593A0020436F756E7420583A56
:101870000020453A00205A3A0020593A00583A00D0
:101880005761726E696E673A20486F6D696E6720A6
:1018900042756D702044697669736F72203C203107
:1018A0000A000202040000A0400000A04000000066
:1018B0004000000001000000010000800055555567
:1018C000000000400033333300AAAA2A00499224C2
:1018D0000000002000C7711C0099991900D145171C
:1018E00000555515003BB113002449120011111188
:1018F00000000010000F0F0F00E3380E0043790DB9
:1019000000CCCC0C00C3300C00E8A20B0064210B0F
:1019100000AAAA0A00703D0A009DD80900427B096E
:101920000092240900DCD3080088880800104208CF
:101930000000000800F0C107008787070075500706
:1019400000711C07003EEB0600A1BC060069900672
:101950000066660600703E06006118060017F40572
:101960000074D105005BB00500B2900500627205FD
:10197000005555050078390500B81E050005050518
:10198000004EEC040087D40400A1BD040090A7041D
:101990000049920400C17D0400EE690400C75604AA
:1019A00000444404005C3204000821040041100497
:1019B00000000004003FF00300F8E0030026D2031B
:1019C00000C3C30300CCB503003AA803000A9B037D
:1019D00000388E0300C08103009F750300D06903A7
:1019E00000505E03001D53030034480300913D0383
:1019F000003333030016290300381F030097150333
:101A000000300C0300030303000BFA020049F1024B
:101A100000BAE802005CE002002DD802002DD002DE
:101A20000059C80200B0C0020031B90200DAB102A8
:101A300000AAAA0200A0A30200BC9C0200FA950220
:101A4000005C8F0200DF88020082820200457C0277
:101A5000002776020027700200436A02007C6402BD
:101A600000D05E02003F590200C853020048656181
:101A700074696E67204661696C65640048656174CD
:101A8000696E67206661696C656400202D20496E6F
:101A900076616C6964206578747275646572206E15
:101AA000756D62657220210A0070012C019001277A
:101AB00001B0012201C0011D01F001180110021343
:101AC0000130020E016002090190020401C002FF10
:101AD000000003FA004003F5008003F000D003EBA0
:101AE000002004E6007004E100E004DC004005D7BB
:101AF00000C005D2004006CD00D006C8008007C354
:101B0000003008BE00F008B900C009B400B00AAF48
:101B100000B00BAA00D00CA500000EA000500F9B37
:101B200000C01096005012910000148C00C0158760
:101B300000B0178200B0197D00D01B7800001E7322
:101B40000040206E0090226900F024640040275F6E
:101B50000090295A00E02B5500102E500020304BE9
:101B60000010324600E033410090353C001037371A
:101B70000070383200A0392D00B03A2800A03B2375
:101B800000603C1E00103D1900903D1400103E0FF7
:101B900000703E0A00C03E0500003F0000403FFBD1
:101BA000FF803FF6FFC03FF1FF544845524D414C86
:101BB0002052554E4157415900546865726D616C11
:101BC0002052756E61776179004572723A204D41FD
:101BD0005854454D50004D415854454D5020747255
:101BE00069676765726564004572723A204D494EB7
:101BF00054454D50004D494E54454D502074726926
:101C000067676572656400202F00FFFDFCFAF8F637
:101C1000F4F2F0EEECEAE9E7E5E3E1E0DEDCDAD964
:101C2000D7D5D4D2D0CFCDCBCAC8C7C5C3C2C0BF09
:101C3000BDBCBAB9B7B6B4B3B2B0AFADACAAA9A87F
:101C4000A6A5A4A2A1A09E9D9C9A999897959493CD
:101C500092908F8E8D8B8A898887868483828180FB
:101C60007F7E7D7B7A797877767574737271706F09
:101C70006E6D6C6B6A696867666564636261605FFC
:101C80005E5D5C5B5A5958585756555453525150E3
:101C9000504F4E4D4C4B4A4A4948474646454443AF
:101CA000424241403F3E3E3D3C3B3B3A393838376B
:101CB000363535343332323130302F2E2E2D2C2B19
:101CC0002B2A2929282727262525242323222121B9
:101CD00020201F1E1E1D1C1C1B1B1A19191818174B
:101CE0001616151514131312121111100F0F0E0ED4
:101CF0000D0D0C0C0B0A0A09090808070706060552
:101D0000050404030302020100000042656400456B
:101D10003100626564002C2073797374656D2073E3
:101D2000746F7070656421204865617465725F49E5
:101D3000443A2000220A00556E6B6E6F776E206366
:101D40006F6D6D616E643A202200518911241FBEAF
:101D5000CFEFD1E2DEBFCDBF00E00CBF13E0A0E0CB
:101D6000B2E0ECEDF9E201E00BBF02C007900D928A
:101D7000A430B107D9F72EE0A4E0B3E001C01D9272
:101D8000AB34B207E1F71EE0C6EADEE000E006C0D1
:101D900021970109802FFE010E94B094C53AD10716
:101DA00080E00807A9F70E9407860C94EC940C9435
:101DB00000002F923F924F925F926F927F928F928C
:101DC0009F92AF92BF92CF92DF92EF92FF920F93CA
:101DD0001F93CF93DF93CDB7DEB7CE55D1090FB6A2
:101DE000F894DEBF0FBECDBF20919C032F962FAF7E
:101DF0002F9791E090939C0380919B038D3409F47D
:101E0000DFC4843511F40C94111E873411F00C9446
:101E10002C1E2090990330909A0335E1231631044B
:101E200011F40C942E1E94F454E02516310444F45D
:101E300082E0281631040CF00EC137FE35C0BCC458
:101E400094E02916310409F492C1B6C4AAE52A1611
:101E5000310409F43CC45CF4ECE12E16310409F4BD
:101E6000C5C1FEE12F16310409F4D0C1A5C42BE58C
:101E70002216310409F42FC43CE52316310409F07D
:101E80009BC454E6252E52E0352E6CE4E62E63E02A
:101E9000F62E47E252E05FA74EA775E6C72E73E025
:101EA000D72E00E010E057C480913702882311F448
:101EB0000C942E1E0E94CA4088E893E00E94327162
:101EC00080917F0B83FD88C02091330230913402D2
:101ED00040913502509136026091940370919503C0
:101EE00080919603909197030E948E8D882309F428
:101EF00073C08091410581111EC020E030E0A9012E
:101F0000609146057091470580914805909149057B
:101F10000E94D4910E941893209148023091490266
:101F20006217730744F40E94F5348BE396E00E9435
:101F3000D33411E001C010E020913302309134021B
:101F4000409135025091360260919403709195034F
:101F500080919603909197030E94D3916B017C012D
:101F600020E030E0A9010E94FA9387FF04C0F7FA4D
:101F7000F094F7F8F094209144023091450240919A
:101F8000460250914702C701B6010E94F38D20E03E
:101F900030E048E453E40E94FA9318163CF40E949F
:101FA000F5348CE196E00E94D33402C01123A1F0F5
:101FB0008091940390919503A0919603B09197031B
:101FC0008093330290933402A0933502B09336028B
:101FD00084E993E00E9408822AE037ED43E25CE363
:101FE0006091230270912402809125029091260233
:101FF0000E94F38D6B017C0160912102709122029D
:10200000072E000C880B990B0E94948D9B01AC014C
:10201000C701B6010E94F38D69837A838B839C8309
:10202000C12CD12C76018E010F5F1F4F24E933E0C4
:1020300040E953E06CE873E088E893E00E94A285F1
:1020400080E1E8E8F3E0A7E2B2E001900D928A9522
:10205000E1F70C942E1E80913702882311F40C9422
:102060002E1E0E94CA4082E50E947C32882309F419
:102070004CC00E94FC316B017C0120E030E0A901E2
:102080000E948E8D882311F40C94FF1E80912702EC
:1020900090912802A0912902B0912A028EA79FA7B1
:1020A000A8ABB9AB20912B0230912C0240912D02AC
:1020B00050912E022AAB3BAB4CAB5DAB80908803BA
:1020C00090908903A0908A03B0908B0340908C037A
:1020D00050908D0360908E0370908F03A501940142
:1020E000BC01CD010E948E8D81110C94441EA30170
:1020F00092016AA97BA98CA99DA90E948E8D882333
:1021000011F40C94FF1E0C94441E89E40E947C324E
:10211000882329F00E94FC316B017C0103C0C12C93
:10212000D12C76018AE40E947C32882311F40C942D
:10213000061F0E94FC316EAB7FAB88AF99AF20E0E9
:1021400030E0A901C701B6010E948E8D81110C9467
:10215000131F20E030E0A9016EA97FA988AD99ADD9
:102160000E948E8D81110C94131F0C94FF1E80E52C
:102170000E947C32882379F08091810390918203C0
:10218000009749F04AE050E060E070E00E94138C54
:102190006B017C0103C0C12CD12C760183E50E9428
:1021A0007C32882361F00E94FC3120E030E04AE775
:1021B00054E40E94F38D0E941D936B017C010E94E8
:1021C000F8810E948260C60ED71EE81EF91E0E948A
:1021D0008260DC01CB018C199D09AE09BF09B7FDF6
:1021E00002C00C942E1E0E94AD36F1CF8091800368
:1021F0008770873011F00C94D42260E08FE40E9445
:10220000E84381110C942E1E0C94D422C090270216
:10221000D0902802E0902902F0902A028090710369
:1022200090907203A0907303B090740388E50E94AD
:102230007C32811107C0A5019401C701B6010E943B
:10224000D49102C00E94FC312B013C016E8B7F8B2C
:10225000888F998FC0902B02D0902C02E0902D0295
:10226000F0902E028090750390907603A0907703F3
:10227000B090780389E50E947C32811107C0A501E6
:102280009401C701B6010E94D49102C00E94FC31A2
:102290004B015C016A8F7B8F8C8F9D8FBE01665EC8
:1022A0007F4FCE0146960E94033E882311F40C9482
:1022B0002E1E0E94EC7161E085E40E94E843382EF6
:1022C000CE0101962CE0DC011D922A95E9F74982A6
:1022D0005A826B827C828D829E82AF82B886BE01DA
:1022E0006B5F7F4F0E94033E882309F487C12091D2
:1022F0007103309172034091730350917403C301D1
:10230000B2010E94D3916AAB7BAB8CAB9DAB69836E
:102310007A838B839C83209175033091760340915F
:10232000770350917803C501B4010E94D3919B01BA
:10233000AC016D837E838F839887E0902F02F090AD
:1023400030020091310210913202E986FA860B8741
:102350001C878091230290912402A0912502B091C4
:1023600026028EA79FA7A8ABB9AB85E595E5A5E0AA
:10237000B3E48093230290932402A0932502B093A8
:1023800026021E8E1F8E18A219A2DE015E966D0116
:102390006AA97BA98CA99DA90E940B7281E00E9469
:1023A000AB7F81110C94472680917F0382FF13C07D
:1023B0002091790330917A0340917B0350917C0303
:1023C00060E070E080E090EC0E94D3916AAB7BAB60
:1023D0008CAB9DAB08C020E030E040E251EC2AAB72
:1023E0003BAB4CAB5DABC0907903D0907A03E090EF
:1023F0007B03F0907C0320E030E0A901C701B60127
:102400000E948E8D87FF0BC0A701960160E070E0EF
:1024100080E791E40E94D3916B017C0106C0C12C3E
:10242000D12CA0E7EA2EA1E4FA2EA7019601609133
:102430002F027091300280913102909132020E94FD
:10244000FA9318160CF04CC0CAA6DBA6ECA6FDA6A3
:10245000C12CD12CF0E2EF2EF1E4FF2ECEA2DFA2B0
:10246000E8A6F9A6BE016A5D7F4FCE018A960E945A
:10247000C77210916403109264030E94E572809108
:10248000600390916103A0916203B0916303809314
:102490002F0290933002A0933102B09332020E9437
:1024A0000B7312FF1DC0CAA2DBA2ECA2FDA220E0AA
:1024B00030E040EA50E460912F0270913002809148
:1024C0003102909132020E94D4916E8F7F8F88A347
:1024D00099A3BE016E5D7F4FCE014E960E94C772DA
:1024E0008AA99BA9ACA9BDA98AA39BA3ACA3BDA3A0
:1024F00080E090E0A0EAB0E48E8F9F8FA8A3B9A3FC
:10250000BE01625E7F4FCE0182960E94C77210911B
:102510006403109264030E94E572809160039091BD
:102520006103A0916203B091630380932F029093A3
:102530003002A0933102B09332020E940B7312FF5B
:102540001EC0C0902F02D0903002E0903102F09077
:1025500032022091790330917A0340917B035091AC
:102560007C0360E070E080E090E40E94D3919B01E6
:10257000AC01C701B6010E94FA93181634F4C12CBD
:10258000D12CE0ECEE2EEFE7FE2E20917903309176
:102590007A0340917B0350917C03C701B6010E94EE
:1025A000D4917B018C019B01AC010E94809481112C
:1025B00008C091E0391205C00E94003E81110C94C0
:1025C00047262EA53FA548A959A920932302309359
:1025D000240240932502509326029701A801B701D7
:1025E000C8010E948094882369F00E94003E0E94E6
:1025F000F23489EC95E00E94D33404C0E12CF12C34
:1026000000EC1FE79701A801B701C8010E94809460
:10261000811157C020E030E0A901C301B2010E943E
:102620008E8D87FF05C067E177EB81E598EB04C0ED
:1026300067E177EB81E598E3A30192010E94D491D1
:10264000AB01BC0183EE95E00E947B3620E030E0D8
:10265000A901C501B4010E948E8D87FF05C067E105
:1026600077EB81E598EB04C067E177EB81E598E3D0
:10267000A50194010E94D491AB01BC018EED95E0BF
:102680000E947B3620E030E0A901B701C8010E941A
:102690008E8D87FF05C067E177EB81E598EB04C07D
:1026A00067E177EB81E598E39701A8010E94D49157
:1026B000AB01BC0189ED95E00E947B368AE00E9467
:1026C000CC340E94D3710E9472740C942E1E10920E
:1026D00098030C942E1E8FE0809398030C942E1E6A
:1026E0000E94FC312B013C01133049F0F60120819E
:1026F0003181428153810E94D3912B013C01AEA5CF
:10270000BFA52D913D914D915C91C301B2010E94F5
:10271000D3914B015C012DEB37E346E855EB0E946A
:10272000FA9387FD20C02DEB37E346E855E3C5015A
:10273000B4010E948E8D1816B4F01F5FB4E0EB0E4A
:10274000F11CEEA5FFA53496FFA7EEA7F4E0CF0E8F
:10275000D11C143039F1D1018D911D010E947C32C0
:10276000882359F3BDCF133051F440923302509275
:102770003402609235027092360201E0DECFA5018C
:102780009401F70160817181828193810E94D491CB
:10279000D7016D937D938D939C931397812F0E9406
:1027A0001271CBCF002321F083E392E00E940882D4
:1027B0000E9472740C942E1E0E9494850C942E1EFE
:1027C0000091990310919A030C38110509F437C34D
:1027D0000CF091C00936110509F464C20CF04EC02A
:1027E0000D34110509F439C2DCF40F31110509F477
:1027F0004CC154F40131110509F433C10231110502
:1028000009F472C30C940E1E0B34110509F40CC2AA
:102810000CF00EC20A32110509F4DEC10C940E1E32
:102820000435110509F460C3DCF40235110509F41F
:102830004DC30CF052C30135110511F00C940E1E5E
:102840000E94F2780E9435670E942784109230051A
:1028500068EE73E080E090E00E94D8330C942E1E66
:102860000C35110509F48FC30836110509F4F8C1B8
:102870000535110511F00C940E1E62C301371105C8
:1028800009F4B6C29CF40D36110509F408C23CF4F3
:102890000B36110509F43DC20CF41AC29CC20F3666
:1028A000110509F44FC20CF43CC298C20637110559
:1028B00009F461C46CF40337110509F4F3C30CF493
:1028C000ECC30537110511F40C942E1E0C940E1E4A
:1028D0000837110509F48EC40CF489C409371105B1
:1028E00011F00C940E1E10927D0310927E030E9434
:1028F000BC750C942E1E0E3221E0120711F40C94BC
:10290000EB1C0CF050C00D3C110509F458C5FCF44B
:10291000083C110509F4B3C474F40B39110509F42A
:10292000AFC20E3B110509F4A8C20639110511F01A
:102930000C940E1E67C40B3C110509F411C50CF074
:1029400030C5093C110509F4E4C40C940E1E0D3D7C
:10295000110509F434C6BCF4033D110509F45CC546
:102960000C3D110509F41EC60E3C110511F00C9426
:102970000E1EF4E6CF2EF2E0DF2EACE0EA2EA3E04E
:10298000FA2E10E036C5023241E0140709F4B8C649
:102990000D3251E0150709F42CC7023E110511F064
:1029A0000C940E1E62C6043F81E0180711F40C94CB
:1029B000A71D74F50139B1E01B0711F40C94321D09
:1029C0008CF40033F1E01F0709F492C714F40C945F
:1029D0002F1D0039114011F00C940E1E0E94F88139
:1029E0000C942E1E0A3941E0140709F4FEC10C3A7A
:1029F00051E0150711F40C94381D0239114011F003
:102A00000C940E1E0E94003E0E9472740C942E1EA6
:102A1000083FA1E01A0711F40C94B61D6CF4063FB0
:102A2000E1E01E0711F40C94AA1D14F00C94AD1DE6
:102A30000E946A5E0C942E1E043823E0120711F4E3
:102A40000C94C61D073E33E0130711F40C94021ECC
:102A50000335134011F00C940E1E0E94C53C0C94DB
:102A60002E1E8091480384FF02C00C943C24809168
:102A70004A0387FF02C00C943C2480914B0383706F
:102A800011F00C943C240C9459240E94C6667B01DE
:102A90008C0120E831E541E050E00E947C91C901C1
:102AA0006DE671E00E949C944B015C01C801B70186
:102AB00020E13EE040E050E00E947C91CA01B90173
:102AC00028E130E040E050E00E947C91762E672EB5
:102AD000C62ED72E4CE3242E312C412C512CC8016C
:102AE000B701A20191010E947C91F62EE72ECA0146
:102AF000B901A20191010E947C91CB018E010F5F6F
:102B00001F4F8114910499F0EF92FF927F936F937E
:102B10006F927F92BF92AF929F928F9288EA95E0D8
:102B20009F938F931F930F930E94608D13C0A114E6
:102B3000B104B1F0EF92FF927F936F936F927F9207
:102B4000BF92AF9288E995E09F938F931F930F9365
:102B50000E94608D0FB6F894DEBF0FBECDBF30C0AF
:102B6000CD2879F0EF92FF927F936F936F927F92CF
:102B70008CE895E09F938F931F930F930E94608D35
:102B8000E9CF892B69F0EF92FF927F936F9384E8EE
:102B900095E09F938F931F930F930E94608DDACFE0
:102BA000EF92FF9280E895E09F938F931F930F938E
:102BB0000E94608D0F900F900F900F900F900F90CC
:102BC0000E94F534B8018CEB95E00E94E1348AE074
:102BD0000E94CC340C942E1E83E50E947C32882304
:102BE00011F40C942E1E0E94D141F82E6DE070E07D
:102BF00080E50E9483418C0197FF02C00C942E1E39
:102C0000893021F4F09230050C942E1E60E089E4A6
:102C10000E94E84381110C946324802F0E946A343F
:102C2000811140C50C9463240E9414670C942E1EDD
:102C300080914703813011F00C942E1E82E0809326
:102C400047030E9482606093430370934403809320
:102C50004503909346030C942E1E0E943567FEC7D1
:102C600080917F0B83FF01C0F9C70E94E54187FF78
:102C700001C0F4C783E50E947C32882369F00E947A
:102C8000FC310E941893CB010E94D8600E94A77863
:102C9000811102C00E9435670E945181DFC70E94E6
:102CA0000D42DCC70E94E541182F87FD0AC08EE661
:102CB00095E00E94D334812F0E941D618AE00E941A
:102CC000CC342F963FAD2F9730939C030C9459260C
:102CD00080E50E9400868111C1C781E40E943332E1
:102CE000882321F060913005062F02C00FEF10E01D
:102CF00083E50E947C32882349F00E94EC318B01ED
:102D00006F3F710519F010F00FEF10E000933005E0
:102D1000A5C780E50E9400868111A0C710923005EA
:102D20009DC78EE40E947C32882309F497C70E94D5
:102D3000EC3160933F037093400380934103909381
:102D400042038CC783E50E943332882329F083E550
:102D50000E94008680937F0B0E94F53487E695E001
:102D60000E94D33480917F0B882369F13DE5E32EE7
:102D700035E0F32E00E010E020E080917F0B90E042
:102D8000A0E0B0E0002E04C0B695A7959795879572
:102D90000A94D2F780FF0EC0DD24D394D20E2223F2
:102DA00019F08CE20E94CC34F701859194910E9435
:102DB000D3342D2D0F5F1F4F42E0E40EF11C053080
:102DC0001105D9F604C089E595E00E94D3348AE064
:102DD0000E94CC3443C71092200240C741E060E01B
:102DE00070E08BE495E00E94F8340E94173436C7F7
:102DF00083E50E947C32882371F00E94D141282F04
:102E000030E02D3331051CF480931F0227C78CE37B
:102E100080931F0223C70E94F534C0901F02D12C5B
:102E2000E12CF12C84E495E00E94D3344AE0C70100
:102E3000B6010E946F358AE00E94CC340FC78091A2
:102E40007F0B83FD0BC783E50E947C32882371F0E2
:102E50000E94FC310E9418936C3871050CF48B01B0
:102E600010933103009330030E94BA780E94A77830
:102E70008111F4C60E943567F1C60E94D33AEEC6AE
:102E800083E50E947C32882309F4E8C60E94D14180
:102E9000182F90E0CD970CF01CE3109327030E94AD
:102EA00082606B017C01212F30E0A8EEB3E00E942C
:102EB000C491C60ED71EE81EF91EC0922303D092FD
:102EC0002403E0922503F0922603C8C6809198035C
:102ED0008F7D806180939803C1C6809198038F7E17
:102EE000806280939803BAC683E50E947C3288236F
:102EF00099F00E94FC3120E030E04AE754E40E945F
:102F0000F38D0E941D9360931B0270931C028093AB
:102F10001D0290931E02A2C68091480384FF02C046
:102F20000C94712480914A0387FF02C00C94712491
:102F300080914B03837011F00C9471240C94A324A2
:102F400083E50E943332882309F488C60E94826098
:102F50006093840370938503809386039093870323
:102F60000E94FC3120E030E04AE754E40E94F38DF7
:102F70000E941D9360931F0370932003809321038D
:102F8000909322036BC60E94E54187FD67C690912E
:102F9000480394FD04C090914A0397FF0AC094E649
:102FA000C92E92E0D92E20E8E22E2BE0F22E10E07E
:102FB00009C090914B03937091F7682F81E00E94B4
:102FC00096414CC6D6018D916D010E947C328823BA
:102FD00009F459C0133009F04FC00E94FC314B0175
:102FE0005C0120E030E040EA51E40E948E8D87FFD2
:102FF0003AC0A50194016091A00B7091A10B809142
:10300000A20B9091A30B0E94B0922B013C019B015B
:10301000AC016091B00B7091B10B8091B20B9091AB
:10302000B30B0E94F38D6093B00B7093B10B809340
:10303000B20B9093B30B609124057091250580919C
:103040002605909127050E94928DA30192010E946E
:10305000F38D0E941D936093240570932505809342
:103060002605909327058092A00B9092A10BA09229
:10307000A20BB092A30B07C00E94FC31F701648B36
:10308000758B868B978B1F5FF4E0EF0EF11C14306D
:1030900009F098CF0E948983E1C50E94F8810E94BF
:1030A0007274DCC58EE694E00E94D33460E08EE555
:1030B00094E00E94B04060E089E494E00E94B04057
:1030C00061E082E494E00E94B04061E087E394E034
:1030D0000E94B04061E087E294E00E94B04060E06E
:1030E0008EE194E00E94B04061E084E194E00E94AF
:1030F000B04060E08AE094E00E94B04061E082E08D
:1031000094E00E94B04060E084EF93E00E94B04001
:1031100060E086EE93E00E94B04060E087ED93E0CF
:103120000E94B04060E089EC93E00E94B04060E013
:1031300083EB93E00E94B04060E082EA93E00E945B
:10314000B04060E083E993E00E94B04060E08EE729
:1031500093E00E94B04061E08BE693E00E94B040B3
:1031600060E08EE593E00E94B04060E08AE493E086
:103170000E94B04073C500911D0310911E0394E09E
:10318000F12C40E0915031F1D8018C91282F2B7F08
:10319000213429F411962C912133E1F408C08035B3
:1031A000C9F4F801818180538A3048F013C081341A
:1031B00021F0853421F441E002C0FF24F39498010A
:1031C0002E5F3F4F89012F5F3F4FD8018C91803296
:1031D000C9F3D8CF41110E94F534FF2021F086E4D5
:1031E00093E00E94D334C8010E948E3637C50E94F6
:1031F0009D7534C581E080937D0380937E030E949A
:10320000BC752CC582E40E943332882351F0809132
:10321000810390918203892B31F00E94D141182FB4
:1032200003C010E001C01FEF85E50E943332882300
:1032300051F08091810390918203892B31F00E949B
:10324000D141082F03C000E001C00FEF82E50E94CA
:103250003332882349F08091810390918203892B36
:1032600029F00E94D14103C080E001C08FEF898323
:103270000A831B83CE0101960E948832EFC40E940C
:10328000E541182F87FDEAC484E40E943332882385
:10329000E9F10E94FC316B017C0101E020E030E0AB
:1032A000A9010E948E8D811101C000E000931C03D2
:1032B00020E030E0A901C701B6010E948E8D88236D
:1032C00029F1B4E01B02F0011124E85EFC4FC0823A
:1032D000D182E282F38220E030E0A90160911803FC
:1032E0007091190380911A0390911B030E948E8D97
:1032F00081110CC080E090E0A0EEBFE38093180342
:1033000090931903A0931A03B0931B030E94628445
:10331000A5C40E94E54187FDA1C414E6E12E12E098
:10332000F12E00E81BE080E9C82E8BE0D82EF701D3
:1033300081917F010E943332882361F00E94FC3129
:103340000E941D93D8016D937D938D939C93139749
:103350000E9481810C5F1F4FC016D10641F77EC4C9
:103360000E94E54187FD7AC4B4E6EB2EB2E0FB2E65
:1033700000E81BE0F70181917F010E94333288232E
:1033800049F00E94FC31D80194966D937D938D9302
:103390009C9397970C5F1F4FBBE000391B0751F7B9
:1033A0005DC48091490387FF02C00C94A6248091DC
:1033B0004A038E7011F00C94A6240C94EC24809196
:1033C000480381FF02C00C9414258091490381FFBA
:1033D00002C00C94142580914A038C7011F00C9457
:1033E00014253CC41F5FB4E0EB0EF11C133009F44C
:1033F000DFC9F60181916F010E943332882391F376
:103400000E94FC31D7016D937D938D939C9313970C
:10341000812F0E941271E6CF4090650350906603A1
:10342000609067037090680320910302309104025A
:103430004091050250910602C301B2010E94D4914D
:103440006EA77FA788AB99AB8090690390906A03C1
:10345000A0906B03B0906C0320910702309108029A
:103460004091090250910A02C501B4010E94D49111
:103470006AAB7BAB8CAB9DABC0906D03D0906E0301
:10348000E0906F03F090700320910B0230910C02DA
:1034900040910D0250910E02C701B6010E94D491D5
:1034A0006EAB7FAB88AF99AF20910F0230911002C5
:1034B0004091110250911202C301B2010E94D491B5
:1034C0002B013C012091130230911402409115020E
:1034D00050911602C501B4010E94D4914B015C01C8
:1034E00020911702309118024091190250911A024E
:1034F000C701B6010E94D4916B017C010E94F53492
:1035000081E093E00E94D33483E50E943332882324
:1035100021F00E94D9438093020280910202882305
:1035200019F083EE92E002C08FED92E00E94D33456
:1035300089EF92E00E94D3344EA55FA568A979A9CE
:103540008CEE92E00E947B364AA95BA96CA97DA90A
:1035500089EE92E00E947B364EA95FA968AD79ADF5
:1035600086EE92E00E947B3687EF92E00E94D33491
:103570008FEE92E00E94D334B301A2018CEE92E070
:103580000E947B36B501A40189EE92E00E947B3651
:10359000B701A60186EE92E00E947B368AE00E9487
:1035A000CC345CC383E50E947C32882309F456C383
:1035B0000E94EC3170932202609321024FC30E945B
:1035C000E541F82E87FD4AC383E50E947C320F2D2A
:1035D0000F2C000C110B882369F10E94EC31F801CB
:1035E000EE0FFF1FE050FE4F71836083000F111F2D
:1035F000000F111FF801EC5BFD4F7F01072E000C3F
:10360000880B990B0E94948D2AE037ED43E25CE32E
:103610000E94F38DF801E85FFC4F208131814281E7
:1036200053810E94F38DD7016D937D938D939C936D
:10363000139714C30E94F53485E40E94CC3480E3D0
:103640008F0D0E94CC34F801EE0FFF1FE050FE4FAB
:103650006081718187ED92E00E94FF3585E20E94D2
:10366000CC348AE00E94CC34F9C280E50E94333227
:10367000882309F4F3C260E070E080E50E94834192
:10368000F82E6FEF7FEF83E50E9483418C01019656
:10369000039708F0E3C2F7FCE1C28F2D0E946A3461
:1036A000882339F00E94F23481E795E00E94D334F8
:1036B000D5C20E94F88160E08F2D0E94475F0F3FC6
:1036C000BFEF1B0731F00130110571F000E010E091
:1036D0000DC08F2D0E94F15E31E020E0892B09F0B2
:1036E00030E0032F122F02C001E010E08F2D0E9466
:1036F000F15E8017910709F4B1C20E94AD36F6CF92
:103700008AE50E947C32811106C083E50E947C32EA
:10371000882309F450C00E94FC3120E030E040E0F2
:1037200050EC0E948E8D87FF02C00C94AC250E9445
:10373000FC3120E030E040E050E40E94FA9318169B
:1037400014F40C94A5250E94FC316B017C0180913E
:103750007F038695869580FF22C020919C0B309137
:103760009D0B40919E0B50919F0BC701B6010E948B
:10377000F38D0E94189320919D0330919E03260F94
:10378000371F30939E0320939D03209106033091B1
:103790000703620F731F709307036093060380E5AE
:1037A0000E943332882311F40C94B3250E94D9432C
:1037B00081110C94B32580914A0387FF02C00C94B9
:1037C000DA2580914B03837011F00C94DA250E9466
:1037D000F5344091790350917A0360917B037091A5
:1037E0007C0388EB92E00E947B368AE00E94CC3416
:1037F00035C285E40E940086811173C080E50E9475
:103800003332882351F00E94FC3160934D05709350
:103810004E0580934F059093500589E40E94333202
:10382000882381F00E94FC312CEA35EC47E25EE30C
:103830000E94F38D60935105709352058093530558
:103840009093540584E40E943332882381F00E94CF
:10385000FC312CEA35EC47E25EE30E94B0926093C3
:1038600055057093560580935705909358050E940F
:10387000F53440914D0550914E0560914F05709182
:10388000500584EB92E00E947B362CEA35EC47E24F
:103890005EE36091510570915205809153059091BE
:1038A00054050E94B092AB01BC0180EB92E00E94F3
:1038B0007B362CEA35EC47E25EE36091550570916A
:1038C000560580915705909158050E94F38DAB01E4
:1038D000BC018CEA92E00E947B368AE00E94CC34E4
:1038E000BDC10E94F2348AE992E00E94D334B6C18D
:1038F00080E50E943332882351F00E94FC316093AE
:10390000330370933403809335039093360389E433
:103910000E943332882381F00E94FC312CEA35EC7E
:1039200047E25EE30E94F38D6093370370933803A0
:103930008093390390933A0384E40E9433328823BE
:1039400081F00E94FC312CEA35EC47E25EE30E94F4
:10395000B09260933B0370933C0380933D0390933C
:103960003E030E94F534409133035091340360913B
:1039700035037091360386E992E00E947B362CEA8B
:1039800035EC47E25EE36091370370913803809134
:10399000390390913A030E94B092AB01BC0182E9D5
:1039A00092E00E947B362CEA35EC47E25EE36091C0
:1039B0003B0370913C0380913D0390913E030E9434
:1039C000F38DAB01BC018EE892E00E947B368AE069
:1039D0000E94CC3443C183E50E943332182F8823E0
:1039E00071F00E94FC310E94189370934902609319
:1039F000480221E0672B09F020E02093410580E593
:103A00000E943332882359F02091480230914902B4
:103A1000232B11F00E94D943809341051FC111113E
:103A20001DC10E94F5348BE792E00E94D33480914F
:103A30004105882319F083E692E002C08FE592E009
:103A40000E94D33460914802709149028AE692E064
:103A50000E94FF3586E692E00E94D334FFC00E94A8
:103A60004967FCC081E00E94AB7F0E947274F6C07F
:103A70009091800390FD02C087E001C086E091FD37
:103A80008D7FFE0131961F0192FD02C00C94E1254D
:103A90008B7F11F00C940A2603E512E027E232E056
:103AA0003FA72EA793E0C92E96E0D92E7F01F801FB
:103AB0006591759185919491AEA5BFA58D909D90CE
:103AC000AD90BD90BFA7AEA7A50194010E94D39170
:103AD0002B013C01F701608371838283938320E093
:103AE00030E040EA51EC0E94FA9387FD0AC020E0E2
:103AF00030E040EA51E4C301B2010E948E8D1816F5
:103B000034F4F6018491181614F40C940D26D701A0
:103B10008D909D90AD90BD907D0120E030E040EA19
:103B200051ECC501B4010E94FA9387FF02C00C94C6
:103B3000192620E030E040EA51E4C501B4010E94BA
:103B40008E8D181614F00C9420260C9419260E94C1
:103B5000946184C00E94E05481C061E083E50E94CA
:103B6000E84391E089270E94155678C09093050399
:103B70000E94575810920503882309F46FC00E94D1
:103B8000F53488E192E00E94D33468C08BE40E944F
:103B90007C32882329F10E94FC316B017C0120E0FA
:103BA00030E0A9010E94FA9387FD15C020E030E0C3
:103BB00040E251E4C701B6010E948E8D18165CF0F8
:103BC0000E94F881C0925905D0925A05E0925B0597
:103BD000F0925C0543C08EEE91E00E94D3343EC06B
:103BE0000E94F5344091590550915A0560915B054A
:103BF00070915C058DE092E00E947B368AE00E9425
:103C0000CC342CC081E08093370260E083E50E94D1
:103C1000E843811123C00E947D3C20C00E9494850E
:103C20001DC00091990310919A030023B9F00E94DE
:103C3000F53484E50E94CC34B8017727072E000CB8
:103C4000880B990B0E94E53580E20E94CC348CED04
:103C500091E00E94D33402C00E949485E091040355
:103C6000F0E0E25CF14F8081882339F089ED91E04A
:103C70000E94D3348AE00E94CC342F96FFAD2F9758
:103C8000F0939C030C94592611E022E02216310493
:103C900009F010E020E030E0A901C701B6010E9460
:103CA0008E8D881F8827881F1813A4C080E090E09D
:103CB000A0E8BFE38EAB9FABA8AFB9AF2EA53FA5E1
:103CC00048A959A9C501B4010E94D39120E030E070
:103CD00040E05FE30E94F38D6EA77FA788AB99ABAE
:103CE0002AA93BA94CA95DA9C301B2010E94D391A5
:103CF00020E030E040E05FE30E94F38D6AAB7BABF5
:103D00008CAB9DAB2EA53FA548A959A9CA01B90105
:103D10000E94F38D4B015C012AA93BA94CA95DA926
:103D2000CA01B9010E94F38D9B01AC01C501B40128
:103D30000E94D4910E943F944B015C019B01AC0115
:103D4000C701B6010E94D3912B013C01A50194014A
:103D5000C701B6010E94D4919B01AC01C301B2011D
:103D60000E94F38D6B017C0120E030E0A9010E94EC
:103D7000FA9387FD07C0C701B6010E943F942B014B
:103D80003C0103C0412C512C32016AA97BA98CA9AA
:103D90009DA99058A50194010E94B0922EA93FA917
:103DA00048AD59AD0E94F38DA30192010E94F38D9D
:103DB0002EA53FA548A959A90E94D4916B017C0169
:103DC000A50194016EA57FA588A999A90E94B0922A
:103DD0002EA93FA948AD59AD0E94F38DA3019201D0
:103DE0000E94F38D2AA93BA94CA95DA90E94D491F8
:103DF0000C949B1080E090E0A0E8BFEB5BCF0E94AA
:103E0000F23486E096E00E94D33428CF20E030E000
:103E1000A901C701B6010E948E8D882381F31EAAD5
:103E20001FAA18AE19AEA701960150582EA73FA79A
:103E300048AB59AB8EA99FA9A8ADB9ADB0588AAB14
:103E40009BABACABBDABCA01B9010E94F38D4B017A
:103E50005C012AA93BA94CA95DA9CA01B9010E942C
:103E6000F38D9B01AC01C501B4010E94D4910E9465
:103E70003F942E966CAF7DAF8EAF9FAF2E97209163
:103E80002702309128024091290250912A022AAF3C
:103E90003BAF4CAF5DAFA70196016AAD7BAD8CAD7A
:103EA0009DAD0E94D49163966CAF7DAF8EAF9FAFF6
:103EB000639780912B0290912C02A0912D02B091DA
:103EC0002E0222968CAF9DAFAEAFBFAF22972EA928
:103ED0003FA948AD59ADBC01CD010E94D491679670
:103EE0006CAF7DAF8EAF9FAF679720918803309105
:103EF000890340918A0350918B0326962CAF3DAFE6
:103F00004EAF5FAF269763962CAD3DAD4EAD5FAD26
:103F1000639726966CAD7DAD8EAD9FAD26970E94C2
:103F2000D3916B017C0180918C0390918D03A091C2
:103F30008E03B0918F032A968CAF9DAFAEAFBFAF0B
:103F40002A9767962CAD3DAD4EAD5FAD6797BC012E
:103F5000CD010E94D3914B015C01A70196016EA592
:103F60007FA588A999A90E94F38D2B013C01A50189
:103F700094016AA97BA98CA99DA90E94F38D9B013C
:103F8000AC01C301B2010E94D4912B013C01A501F7
:103F900094016EA57FA588A999A90E94F38D4B0174
:103FA0005C01A70196016AA97BA98CA99DA90E9421
:103FB000F38D9B01AC01C501B4010E94D391A30113
:103FC00092010E9447926B017C0120E030E0A90140
:103FD0000E948E8D87FF0AC02BED3FE049EC50E434
:103FE000C701B6010E94D4916B017C012BED3FE02B
:103FF00049EC50E4C701B6010E94B09220E030E0E5
:1040000040EC51E40E94F38D0E949A920E941D930D
:104010008B01672B11F401E010E092E029163104C6
:1040200051F42BED3FE049EC50E4C701B6010E948A
:10403000D3916B017C0120E030E0A901C701B601FA
:104040000E948E8D811128C026962CAD3DAD4EADBF
:104050005FAD26976AAD7BAD8CAD9DAD0E948E8D18
:1040600081111AC02A962CAD3DAD4EAD5FAD2A9799
:1040700022966CAD7DAD8EAD9FAD22970E948E8D48
:1040800081110AC008E110E08BEDC82E8FE0D82E18
:1040900089ECE82E80E4F82E20912F023091300236
:1040A000409131025091320222962CAF3DAF4EAF7B
:1040B0005FAF22976091900370919103809192037A
:1040C000909193030E94D3912B013C01A70196018B
:1040D0002E966CAD7DAD8EAD9FAD2E970E94F38D6B
:1040E0004B015C0120E030E0A901C301B2010E9454
:1040F0008E8D8823C9F0A5019401C501B4010E94E9
:10410000F38D4B015C01A3019201C301B2010E9436
:10411000F38D9B01AC01C501B4010E94D4910E94B2
:104120003F944B015C010DC020E030E0A901C501C6
:10413000B4010E94FA9387FF04C0B7FAB094B7F8AD
:10414000B0942FE632E143E85AE3C501B4010E947E
:104150008E8D87FD1EC28091940390919503A0914E
:104160009603B09197032A968CAF9DAFAEAFBFAFC9
:104170002A972091330230913402409135025091B8
:10418000360226962CAF3DAF4EAF5FAF26972AE0A2
:1041900037ED43E25CE36091230270912402809149
:1041A0002502909126020E94F38D6AAF7BAF8CAFFF
:1041B0009DAF6091210270912202072E000C880BA6
:1041C000990B0E94948D9B01AC016AAD7BAD8CADC7
:1041D0009DAD0E94F38D6E8B7F8B888F998FC5016B
:1041E000B4010E9449930E941D931B01601771073F
:1041F00008F41801B10180E090E00E94928D4B011B
:104200005C019B01AC01C701B6010E94B0926AAF8C
:104210007BAF8CAF9DAFA5019401C301B2010E9499
:10422000B0926B966CAF7DAF8EAF9FAF6B972696BB
:104230002CAD3DAD4EAD5FAD26972A966CAD7DADF4
:104240008EAD9FAD2A970E94D391A50194010E9443
:10425000B0926F966CAF7DAF8EAF9FAF6F972AAD68
:104260003BAD4CAD5DADCA01B9010E94F38D20E0BC
:1042700030E040E05FE30E94F38D9B01AC0160E021
:1042800070E080E89FE30E94D3912A966CAF7DAFE7
:104290008EAF9FAF2A9722968CAD9DADAEADBFADD0
:1042A000229789879A87AB87BC8726962CAD3DAD30
:1042B0004EAD5FAD26972D873E874F87588B0E9466
:1042C00082609B01AC0128533F4F4F4F5F4F2E96AA
:1042D0002CAF3DAF4EAF5FAF2E974EA45FA468A842
:1042E00079A841E050E05FAF4EAF59E123965FAF50
:1042F00023978EAD9FAD8215930508F01EC10E94D5
:10430000747A0E948260DC01CB012E962CAD3DAD0B
:104310004EAD5FAD2E97821B930BA40BB50BB7FD73
:1043200010C00E9482609B01AC0128533F4F4F4F49
:104330005F4F2E962CAF3DAF4EAF5FAF2E970E94D2
:10434000AD3623963FAD2397315023963FAF239749
:10435000332309F441C02AA93BA94CA95DA92A9697
:104360006CAD7DAD8EAD9FAD2A970E94F38D6B0134
:104370007C019201A3016AAD7BAD8CAD9DAD0E9425
:10438000F38DA70196010E94D4917B018C019201CB
:10439000A3012A966CAD7DAD8EAD9FAD2A970E948C
:1043A000F38D4B015C012AA93BA94CA95DA96AAD1B
:1043B0007BAD8CAD9DAD0E94F38D9B01AC01C50121
:1043C000B4010E94D3912B013C01C701D8018AABF3
:1043D0009BABACABBDAB51C04EAD5FADBA0180E0A5
:1043E00090E00E94928D2AAD3BAD4CAD5DAD0E9438
:1043F000F38D4B015C010E94AD926B017C01C50104
:10440000B4010E9435944B015C01A70196016EA591
:104410007FA588A999A90E94F38D2B013C012EA9A3
:104420003FA948AD59ADC501B4010E94F38DA30168
:1044300092010E94D4912B013C01A50194016EA52B
:104440007FA588A999A90E94F38D4B015C012EA933
:104450003FA948AD59ADC701B6010E94F38D9B013C
:10446000AC01C501B4010E94D3916AAB7BAB8CABAC
:104470009DAB59E123965FAF23979201A301639609
:104480006CAD7DAD8EAD9FAD63970E94D491698375
:104490007A838B839C832AA93BA94CA95DA9679643
:1044A0006CAD7DAD8EAD9FAD67970E94D4916D834D
:1044B0007E838F8398876B962CAD3DAD4EAD5FADFF
:1044C0006B9769857A858B859C850E94D4916987D5
:1044D0007A878B879C876F962CAD3DAD4EAD5FADD7
:1044E0006F976D857E858F8598890E94D4916D87A1
:1044F0007E878F87988BCE0101960E943271C12CE6
:10450000D12C00E8E02E0FE3F02E8E010A5E1F4F43
:104510009E01235F3F4FAE01475F5F4FBE016B5F60
:104520007F4FCE0101960E94A285882331F08EAD87
:104530009FAD01969FAF8EAFDCCE80E1E8E8F3E05F
:10454000DE01119601900D928A95E1F7CE01019658
:104550000E943271C12CD12C10E8E12E1FE3F12E04
:104560008E010A5E1F4F9E01235F3F4FAE01475FE2
:104570005F4FBE016B5F7F4FCE0101960E94A28507
:1045800080E1FE013196A7E2B2E001900D928A959A
:10459000E1F70E94826060938403709385038093A7
:1045A0008603909387035ACB0E94F8810E94EC7196
:1045B00081E080937D030E94BC7588E50E943332C0
:1045C000182F89E50E943332082F8AE50E94333282
:1045D00010134FC1181711F0312E4CC133243394EE
:1045E00011E091E09EAB80E1E7E2F2E0A8E8B3E001
:1045F00001900D928A95E1F782E50E947C32882332
:1046000069F00E94FC316B017C0120E030E0A901DF
:104610000E948E8D882309F43FC006C0C12CD12C86
:10462000B0EAEB2EB0E4FB2E111103C0332009F4E5
:104630000FC180917F0382FD09C060912F027091AC
:104640003002809131029091320203C060E070E04C
:10465000CB01A70196010E94D491609390037093BF
:104660009103809392039093930320912F023091B2
:10467000300240913102509132020E94FA93181692
:104680005CF419821A821B821C82BE016F5F7F4F0D
:1046900080E993E00E94C772112309F4D4C033204B
:1046A00009F4CEC01092270210922802109229021B
:1046B00010922A0210922B0210922C0210922D02BC
:1046C00010922E020E940B73E3E0F6E0A491AEAFCD
:1046D000E7EFF5E0C590D590E590F490EBEFF5E0CD
:1046E00085909590A590B490A5019401C701B6015D
:1046F0000E94FA9318162CF4A7019601C501B40183
:1047000004C0A5019401C701B6010E94B0922B011B
:104710003C01EFEEF5E025913591459154912EA79E
:104720003FA748AB59ABEBEEF5E085919591A5918C
:10473000B4918AAB9BABACABBDAB9C01AD016EA59C
:104740007FA588A999A90E94FA93181634F42AA87B
:104750009BA99AAF0CA91DA905C02EA4AFA5AAAF0D
:1047600008A919A9A3019201C301B2010E94F38D06
:1047700020E030E040E85FE30E94D4910E943F9443
:10478000222D3AADA8010E94F38D69837A838B8331
:104790009C83E4E0F6E0149140902F0250903002A8
:1047A000609031027090320220E030E040EC5FE334
:1047B000C501B4010E94F38D4B015C01612F110F03
:1047C000770B880B990B0E94948D9B01AC01C5015E
:1047D000B4010E94F38D4B015C0120E030E040EC1D
:1047E0005FE3C701B6010E94F38D6B017C01BEAD92
:1047F0006B2FBB0F770B880B990B0E94948D9B013D
:10480000AC01C701B6010E94F38DFE0131966F0124
:1048100083017201A50194010E940B720E94D2547F
:1048200010922702109228021092290210922A0256
:1048300010922B0210922C0210922D0210922E0236
:1048400080E00E944D73332019F081E00E944D7387
:10485000FEA9FF2319F082E00E944D730E940B73A2
:1048600080917E0380937D030E94D3710E947274B5
:10487000F5C9302E8EABB7CE88E50E943332811158
:104880005F9889E50E94333281118A988AE50E94F7
:104890003332882331F080910801817080930601C2
:1048A000479885E40E943332882309F4D7C91298C7
:1048B000D5C95F988A98809108018170809306011C
:1048C00047981298CBC961E0802F0E94475F6F2DF7
:1048D000802F0E94195F6F2D70E0802F0E94835FF0
:1048E000BDC90E94F88188E50E943332882331F0E7
:1048F0005F9A80917F038E7F80937F0389E50E947A
:104900003332882331F08A9A80917F038D7F8093A0
:104910007F038AE50E943332882361F08091080189
:104920008095817080930601479A80917F038B7FE9
:1049300080937F0385E40E943332882309F48EC973
:104940000E94FC338BC90E94278488C983E50E949A
:104950007C32882391F00E94FC316093B40B7093F9
:10496000B50B8093B60B9093B70B6093BC0B709311
:10497000BD0B8093BE0B9093BF0B80E50E947C32F1
:10498000882351F00E94FC316093B40B7093B50BF7
:104990008093B60B9093B70B82E50E947C328823FC
:1049A00051F00E94FC316093B80B7093B90B809367
:1049B000BA0B9093BB0B84E50E947C32882309F4E8
:1049C0004DC90E94FC316093BC0B7093BD0B80936A
:1049D000BE0B9093BF0B42C94091B40B5091B50BE5
:1049E0006091B60B7091B70B86E393E00E947B3623
:1049F0004091B80B5091B90B6091BA0B7091BB0B01
:104A000083E393E00E947B364091BC0B5091BD0B39
:104A10006091BE0B7091BF0B80E393E00E947B36E8
:104A20008AE00E94CC341AC982E40E94333288237F
:104A3000C1F08091810390918203009739F04AE0A0
:104A400050E060E070E00E94138C03C060E070E012
:104A5000CB016093900B7093910B8093920B90938A
:104A6000930B83E50E943332882351F00E94FC317E
:104A70006093C00B7093C10B8093C20B9093C30BD8
:104A800084E50E943332882351F00E94FC31609308
:104A9000C40B7093C50B8093C60B9093C70B8AE42D
:104AA0000E943332882309F4D9C80E94FC316B017B
:104AB0007C012AE037ED43E25CE30E94FA9387FD34
:104AC0003DC02AE939E949E95EE3C701B6010E9420
:104AD0008E8D18169CF1C0921405D0921505E092A7
:104AE0001605F092170560918C0B70918D0B8091DB
:104AF0008E0B90918F0B0E94928D4B015C0123EFE6
:104B000034E045E35FE3C701B6010E94F38D9B01EA
:104B1000AC01C501B4010E94F38D29E732E84AE5F2
:104B200050E40E94F38D0E943F9460932C05709393
:104B30002D0580932E0590932F0590C80E94F23486
:104B400081E193E00E94D33489C8C12CD12CE12C9F
:104B500030E4F32E0C94A71BC12CD12CE12C20ECBB
:104B6000F22E0C94A71BA701960160917903709116
:104B70007A0380917B0390917C030E94D49160938F
:104B8000790370937A0380937B0390937C030E9454
:104B9000F5344091790350917A0360917B037091D1
:104BA0007C0387EC92E00E947B368AE00E94CC3442
:104BB0000C94DB1B82E50E94333281110C94E71BBD
:104BC0004DC82AEE32E081FF03C04CEE52E002C035
:104BD0004EEF52E080FF03C08EEE92E002C08EEFF7
:104BE00092E03F932F935F934F939F938F9383E232
:104BF00092E09F938F933F922F920E94608D0E942C
:104C0000F534C1010E948E360FB6F894DEBF0FBE98
:104C1000CDBF24C82EEF32E0D6CFB7FAB094B7F8A4
:104C2000B094D7018D929D92AD92BC9213970C9443
:104C3000871D0E94F23485E392E00E94D3340EC8AF
:104C40000C5F1F4FBFEFCB1ADB0AEFE5F2E0E01776
:104C5000F10711F00C94571D8CE0E82E83E0F82E3C
:104C600010E0F10181919191A191B1911F01F701A2
:104C700081939193A193B1937F01812F0E9412712F
:104C80001F5F133071F70E9472740C942E1E2EA5B4
:104C90003FA548A959A920932302309324024093A9
:104CA000250250932602E12CF12C00EC1FE70C9416
:104CB000F512C25ADF4F0FB6F894DEBF0FBECDBF5C
:104CC000DF91CF911F910F91FF90EF90DF90CF90E8
:104CD000BF90AF909F908F907F906F905F904F901C
:104CE0003F902F9008952F923F924F925F926F9234
:104CF0007F928F929F92AF92BF92CF92DF92EF926C
:104D0000FF920F931F93CF93DF93CDB7DEB76497D6
:104D10000FB6F894DEBF0FBECDBF8FEF9FEF90931D
:104D20008900809388000AE00983212C312C789433
:104D30008091EF039091F003A091F103B091F20301
:104D4000892B8A2B8B2B71F080914002909141022C
:104D5000A0914202B0914302892B8A2B8B2B09F040
:104D600082C2DFC18091E30D8823D1F01092E30D60
:104D70008091E10D9091E20D892B31F31092A70300
:104D80001092E20D1092E10D9091080E8091090EA3
:104D90009817D1F28091090E8F5F8F708093090E62
:104DA0008091E10D9091E20D892B71F24091EB031E
:104DB0005091EC036091ED037091EE038091E70355
:104DC0009091E803A091E903B091EA030091DD031B
:104DD00010E020E030E0841B950BA60BB70B081702
:104DE00019072A073B0710F4D901C801E82F840FDF
:104DF000951FA61FB71F8093EB039093EC03A0931E
:104E0000ED03B093EE031C8A1B8AF1E00091B2031C
:104E10001091B3032091B4033091B5038091C20384
:104E20009091C303A091C403B091C503080F191F4B
:104E30002A1F3B1F0093C2031093C3032093C40394
:104E40003093C50337FD31C080919F03082E000CBD
:104E5000990BAA0BBB0B4091F00D5091F10D609195
:104E6000F20D7091F30D840F951FA61FB71F80934D
:104E7000F00D9093F10DA093F20DB093F30D80918E
:104E8000AE039091AF03A091B003B091B103B9010B
:104E9000A801481B590B6A0B7B0B4093C20350932C
:104EA000C3036093C4037093C5034091B60350914C
:104EB000B7036091B8037091B9038091C6039091D4
:104EC000C703A091C803B091C903480F591F6A1FB7
:104ED0007B1F4093C6035093C7036093C80370932E
:104EE000C90377FD31C08091A003082E000C990BF7
:104EF000AA0BBB0BC090F40DD090F50DE090F60D11
:104F0000F090F70D8C0D9D1DAE1DBF1D8093F40D0F
:104F10009093F50DA093F60DB093F70D8091AE032D
:104F20009091AF03A091B003B091B1034A015B012E
:104F3000881A990AAA0ABB0A8092C6039092C703EC
:104F4000A092C803B092C903C090BA03D090BB032B
:104F5000E090BC03F090BD038091CA039091CB0315
:104F6000A091CC03B091CD038C0D9D1DAE1DBF1D36
:104F70008093CA039093CB03A093CC03B093CD034B
:104F8000B7FD31C0C090A1030C2C000CDD08EE0869
:104F9000FF088090F80D9090F90DA090FA0DB09058
:104FA000FB0DC80CD91CEA1CFB1CC092F80DD0925A
:104FB000F90DE092FA0DF092FB0DC090AE03D09087
:104FC000AF03E090B003F090B1034C015D018C1889
:104FD0009D08AE08BF088092CA039092CB03A092AE
:104FE000CC03B092CD038090CE039090CF03A090DD
:104FF000D003B090D103C090BE03D090BF03E09027
:10500000C003F090C103C80CD91CEA1CFB1CC09261
:10501000CE03D092CF03E092D003F092D103F7FCFD
:105020003AC08090A203082C000C9908AA08BB087B
:105030004090FC0D5090FD0D6090FE0D7090FF0DA6
:10504000840C951CA61CB71C8092FC0D9092FD0D43
:10505000A092FE0DB092FF0D8090AE039090AF0332
:10506000A090B003B090B103C818D908EA08FB08B3
:10507000C092CE03D092CF03E092D003F092D1033E
:10508000E090E30BF090DC03E3FE02C0FA9401C071
:10509000F394F092DC03F1110CC0E0908400F090E6
:1050A0008500AB88BC88EA18FB08F2E0EF16F10433
:1050B000A0F337FF889A77FF8E9AB7FD07C0F0916B
:1050C0000B01F095F870F0930901419A80908400EB
:1050D000909085009C8A8B8AE0908400F0908500F7
:1050E000AB88BC88EA18FB08F2E0EF16F104A0F3E5
:1050F00037FF889877FF8E98B7FD06C080910B0127
:105100008870809309014198EE2331F080908400EB
:10511000909085009C8A8B8AE150F0E009F076CE71
:1051200013CE8091DB03882309F454C08090EB03F5
:105130009090EC03A090ED03B090EE03C090D703E5
:10514000D090D803E090D903F090DA034091DC03CB
:10515000C814D904EA04FB0480F48091A803909158
:10516000A9032091AC033091AD032817390728F427
:1051700041504093DC03019714C08C149D04AE048D
:10518000BF04E0F48091A8039091A9032091AA03A1
:105190003091AB038217930788F44F5F4093DC0391
:1051A00001969093A9038093A80340913C025091EB
:1051B0003D0260913E0270913F020FC0AA24AA9462
:1051C000BA2C6501A0923C02B0923D02C0923E0210
:1051D000D0923F024FEF5FEFBA018091DC0387FD71
:1051E00005C0169A80E090E021E01FC01698FACF23
:1051F000222301F1149A80918400909185002091DE
:10520000DC0327FF21C02F5F2093DC032091840063
:1052100030918500281B390B22303105B8F31498E2
:105220002091DC03211112C020E03091DC03311108
:10523000DFCF11C02091840030918500281B390BED
:1052400022303105B8F3D6CF2150DECF80918400D3
:1052500090918500E9CF40934002509341026093C2
:105260004202709343028091EF039091F003A0916A
:10527000F103B091F203892B8A2B8B2B09F086C6A0
:10528000A091E10DB091E20D109711F40C94E5316D
:105290008090EB039090EC03A090ED03B090EE03B0
:1052A0004091E7035091E8036091E9037091EA03AC
:1052B00084169506A606B706D8F01092A70310929A
:1052C000E20D1092E10D9091080E8091090E981751
:1052D00011F40C94E5318091090E8F5F8F708093EB
:1052E000090E00EDC02E07E0D02EE12CF12C2AC4CF
:1052F0004091E3035091E4036091E5037091E6036C
:10530000481559056A057B0508F4A6C14091DF03DD
:105310005091E0036091E1037091E203D5960D9105
:105320001D912D913C91D897401751076207730743
:1053300008F073C1411551056105710549F480906C
:10534000A3039090A403A090A503B090A6036BC103
:10535000F12C0A81842E952F862F1B81FE81EF81EF
:1053600038852985BC80CD80E091DD0DE89DC12C7C
:10537000FF273091DE0D389DC00CF11D1090DF0D20
:10538000189CF00DE99FC00CF11D399FF00DE89FAE
:10539000F00D1C2DBF2E1C9DE12D332722271F9FB2
:1053A000E00D311D2F1DBC9CE00D311D2F1DBF9E3A
:1053B000300D211D132FB22E1C9D012D33272227C6
:1053C0001F9F000D311D2F1DBC9C000D311D2F1D79
:1053D000BF9E300D211D132FB22EEE278090A30308
:1053E0009091A4038091A5030090FF030F2809F476
:1053F00083C03091FB03319FE1198F089F098F090A
:105400002091FC03219FE01981089F098F090091D9
:10541000FD03019F801891098F093B9DE0198108C8
:105420009F098F092B9D801891098F090B9D901959
:1054300081091C9D012D332722271F9F000D311D3F
:105440002F1DBC9C000D311D2F1DBF9E300D211D39
:10545000132FB22E3091F703319FE10D8F1C9F1D4A
:105460008F1D2091F803219FE00D811C9F1D8F1D32
:105470000091F903019F800C911D8F1D3B9DE00D54
:10548000811C9F1D8F1D2B9D800C911D8F1D0B9DC1
:10549000900D811D1C9D012D332722271F9F000D7C
:1054A000311D2F1DBC9C000D311D2F1DBF9E300DC9
:1054B000211D132FB22E3091F303319FE1198F0874
:1054C0009F098F092091F403219FE01981089F090A
:1054D0008F090091F503019F801891098F093B9D69
:1054E000E01981089F098F092B9D801891098F0968
:1054F0000B9D9019810982C03091FB03319FE10D12
:105500008F1C9F1D8F1D2091FC03219FE00D811C8E
:105510009F1D8F1D0091FD03019F800C911D8F1D0C
:105520003B9DE00D811C9F1D8F1D2B9D800C911DAF
:105530008F1D0B9D900D811D1C9D012D3327222752
:105540001F9F000D311D2F1DBC9C000D311D2F1DF7
:10555000BF9E300D211D132FB22E3091F703319FC6
:10556000E1198F089F098F092091F803219FE01905
:1055700081089F098F090091F903019F8018910903
:105580008F093B9DE01981089F098F092B9D801889
:1055900091098F090B9D901981091C9D012D3327BD
:1055A00022271F9F000D311D2F1DBC9C000D311D9A
:1055B0002F1DBF9E300D211D132FB22E3091F303EE
:1055C000319FE10D8F1C9F1D8F1D2091F403219FA2
:1055D000E00D811C9F1D8F1D0091F503019F800C24
:1055E000911D8F1D3B9DE00D811C9F1D8F1D2B9DCF
:1055F000800C911D8F1D0B9D900D811D1124CD825E
:10560000BC820A831B83FE83EF8338872987912C12
:10561000992AA12CB12CA82A06C0D1968D909D90D4
:10562000AD90BC90D4970090DE0304C0880C991C08
:10563000AA1CBB1C0A94D2F786E59EE001E00A8B07
:10564000FC010591159125913491081519052A053C
:105650003B0508F412C51EC54090D7035090D803EF
:105660006090D9037090DA03481459046A047B04EB
:1056700008F0CEC18091D603811120C0FD01EF5BFF
:10568000FF4FE080F1800281138178962081318183
:1056900042815381D1966D917D918D919C91D4974A
:1056A0000E94297F31E03093D603E091E10DF09123
:1056B000E20D81A992A9A3A9B4A991C14091D203F5
:1056C0005091D3036091D4037091D503D9960D9175
:1056D0001D912D913C91DC9740175107620773078C
:1056E00008F076C1411551056105710549F44091F5
:1056F000A3035091A4036091A5037091A60365C113
:10570000F0E0EA85842F252F962FBB85AC857D851B
:105710006E855F85488939895091DD0D589F712DBF
:1057200066274091DE0D489F700D611D1090DF0DC2
:10573000189E600D529F700D611D429F600D599F14
:10574000600DB72FA62FB79F512D44273327B69F43
:10575000500D411D3F1FA79F500D411D3F1FA69F8C
:10576000400D311DB42FA32FB79FE12D44273327C0
:10577000B69FE00D411D3F1FA79FE00D411D3F1F3C
:10578000A69F400D311DB42FA32F55278091A30351
:105790002091A4039091A5030090FF030F2A09F420
:1057A00083C04091FB034B9F51198F0B2F0B9F0B15
:1057B0003091FC033B9F501981092F0B9F0BE09107
:1057C000FD03EB9F801921099F0B4A9F5019810906
:1057D0002F0B9F0B3A9F801921099F0BEA9F2019DD
:1057E0009109B79FE12D44273327B69FE00D411D56
:1057F0003F1FA79FE00D411D3F1FA69F400D311D7C
:10580000B42FA32F4091F7034B9F510D8F1F2F1FD4
:105810009F1F3091F8033B9F500D811D2F1F9F1F2D
:10582000E091F903EB9F800D211D9F1F4A9F500DB2
:10583000811D2F1F9F1F3A9F800D211D9F1FEA9FD3
:10584000200D911DB79FE12D44273327B69FE00D12
:10585000411D3F1FA79FE00D411D3F1FA69F400D0B
:10586000311DB42FA32F4091F3034B9F51198F0B80
:105870002F0B9F0B3091F4033B9F501981092F0B85
:105880009F0BE091F503EB9F801921099F0B4A9F25
:10589000501981092F0B9F0B3A9F801921099F0BEB
:1058A000EA9F2019910982C04091FB034B9F510D43
:1058B0008F1F2F1F9F1F3091FC033B9F500D811D99
:1058C0002F1F9F1FE091FD03EB9F800D211D9F1F48
:1058D0004A9F500D811D2F1F9F1F3A9F800D211D34
:1058E0009F1FEA9F200D911DB79FE12D442733276D
:1058F000B69FE00D411D3F1FA79FE00D411D3F1FBB
:10590000A69F400D311DB42FA32F4091F7034B9F4D
:1059100051198F0B2F0B9F0B3091F8033B9F5019A0
:1059200081092F0B9F0BE091F903EB9F801921094F
:105930009F0B4A9F501981092F0B9F0B3A9F80198B
:1059400021099F0BEA9F20199109B79FE12D442758
:105950003327B69FE00D411D3F1FA79FE00D411D5E
:105960003F1FA69F400D311DB42FA32F4091F3037D
:105970004B9F510D8F1F2F1F9F1F3091F4033B9F93
:10598000500D811D2F1F9F1FE091F503EB9F800D90
:10599000211D9F1F4A9F500D811D2F1F9F1F3A9F42
:1059A000800D211D9F1FEA9F200D911D1124EA8764
:1059B000BB87AC877D876E875F87488B398B482F85
:1059C00050E0522B60E070E0692BDB01CA0107C098
:1059D000A75ABF4F8D919D910D90BC91A02D009025
:1059E000DE0304C0880F991FAA1FBB1F0A94D2F7B9
:1059F00026E53EE041E04A8BF901459155916591DC
:105A00007491481759076A077B0708F4CCC3DAC3B7
:105A10008091DC038823E1F0FD01E95BFF4F4081C9
:105A2000518160E070E000913C0210913D022091B4
:105A30003E0230913F02401751076207730741F061
:105A400010924002109241021092420210924302C0
:105A5000409138025091390260913A0270913B02B4
:105A600077FF68C0AF5ABF4FCD90DD90ED90FC90AE
:105A70000090DE0304C0CC0CDD1CEE1CFF1C0A945D
:105A8000D2F786E59EE021E0FC01459155916591B4
:105A900074914C155D056E057F0550F4F694E794FE
:105AA000D794C794220F0496AEE082379A0761F725
:105AB0002093DD03B0E2CB16D104E104F10428F415
:105AC00080E2C82ED12CE12CF12C80E2C81AD1083A
:105AD000E108F108C11498E0D906E104F10408F4E2
