:100000000C94B70E0C94E80E0C94E80E0C94E80EC9
:100010000C94E80E0C94E80E0C94E80E0C94E80E88
:100020000C94E80E0C94E80E0C94E80E0C94E80E78
:100030000C94E80E0C94E80E0C94E80E0C94E80E68
:100040000C94E80E0C949E7F0C94E80E0C94E80E31
:100050000C94E80E0C94E80E0C9425790C944361F2
:100060000C94E80E0C94453B0C943B3B0C94E80E2E
:100070000C94E80E0C94E80E0C94E80E0C94E80E28
:100080000C94E80E0C94E80E0C94E80E0C94E80E18
:100090000C94E80E0C94E80E0C94E80E0C94E80E08
:1000A0000C94E80E0C94E80E0C94E80E0C94E80EF8
:1000B0000C94E80E0C94E80E0C94E80E0C94E80EE8
:1000C0000C94E80E0C94E80E0C94E80E0C94E80ED8
:1000D0000C94E80E0C94E80E0C94E80E0C94E80EC8
:1000E0000C94E80E465F495F385F3C5F425F805F7B
:1000F0004D5F515F575F5B5F5F5F655F695F6D5F1E
:10010000805F735F775F7B5F5F606460696073606F
:100110007D60F66087608F609760A160AB60B560BE
:10012000C460CE60F660D860E260EC60084AD73BFD
:100130003BCE016E84BCBFFDC12F3D6C74319ABDB6
:1001400056833DDA3D00C77F11BED9E4BB4C3E91DA
:100150006BAAAABE000000803F05A84CCDB2D44EC9
:10016000B93836A9020C50B9918688083CA6AAAACB
:100170002ABE000000803F004E414E494E4954596E
:10018000494E46CDCCCC3D0AD7233C17B7D1387762
:10019000CC2B329595E6241FB14F0A000020410078
:1001A00000C84200401C4620BCBE4CCA1B0E5AAEC2
:1001B000C59D74434F4D4D554E49434154494F4E93
:1001C0000044525952554E004552524F5253004925
:1001D0004E464F004543484F006F6B00496E7661B5
:1001E0006C69642065787472756465720A003F4BAF
:1001F0002076616C7565206F7574206F6620726162
:100200006E67652028302D3130292E0A0041647632
:10021000616E6365204B3D00454550524F4D204F68
:100220004B0A00486F6D65202573257325732046A2
:100230006972737400546F6F206661722066726F0A
:100240006D207265666572656E636520706F696E9C
:10025000740A00000000000000A0C000000000645C
:10026000697300656E0043290A0061626C65642051
:10027000286D696E2074656D702000436F6C64207A
:1002800065787472756465732061726520002064FE
:100290003A0020693A0020703A00496E76616C6934
:1002A000642065787472756465720A0020643A008F
:1002B00020693A0020703A0050726F6265204F66E4
:1002C00066736574205A0050726F6265204F6666CF
:1002D0007365745A3A200020466C6F773A20004FBD
:1002E0004646004F4E00205A00205900205800205A
:1002F000204D61783A2000200020204D696E3A2080
:1003000000536F667420656E6473746F70733A2067
:10031000003F4A206F7574206F662072616E6765BA
:100320002028302E303120746F20302E33290A00DF
:10033000205400205200416363656C6572617469EA
:100340006F6E3A2050002F2F20004348414D424508
:10035000525F54454D5045524154555245004D4F02
:1003600054494F4E5F4D4F44455300544845524DFC
:10037000414C5F50524F54454354494F4E004155F4
:10038000544F5245504F52545F53445F535441545D
:1003900055530050524F4D50545F535550504F528B
:1003A0005400454D455247454E43595F50415253C5
:1003B000455200434153455F4C494748545F4252C0
:1003C000494748544E45535300544F47474C455FA7
:1003D0004C494748545300534F4654574152455F88
:1003E000504F574552004255494C445F5045524387
:1003F000454E54004C4556454C494E475F44415488
:1004000041005A5F50524F4245004155544F4C45B0
:1004100056454C005052494E545F4A4F420050528C
:100420004F4752455353004155544F5245504F5238
:10043000545F54454D5000564F4C554D455452490C
:100440004300454550524F4D0042494E4152595F7D
:1004500046494C455F5452414E5346455200534520
:100460005249414C5F584F4E5F584F4646004649EF
:10047000524D574152455F4E414D453A4D61726C68
:10048000696E20322E302E342E3441535758312D80
:1004900046572D4D4F442D76312E3120534F555216
:1004A00043455F434F44455F55524C3A68747470FE
:1004B000733A2F2F6769746875622E636F6D2F70A2
:1004C000696E6775696E70666C656765722F4153FA
:1004D0005758312D46572D4D4F442050524F544FB1
:1004E000434F4C5F56455253494F4E3A312E3020C0
:1004F0004D414348494E455F545950453A33442095
:100500005072696E74657220455854525544455274
:100510005F434F554E543A3120555549443A63652F
:100520006465326132662D343161322D34373438AE
:100530002D396231322D63353563363266333637C5
:1005400066660A004D3131332053004D313132207F
:1005500053687574646F776E006F666600D401CF60
:1005600001C801C101B30144454255473A006F6BD0
:100570000050726F7465637465642050696E0A0080
:100580002569730025696D20256973002569682038
:1005900025696D2025697300256964202569682017
:1005A00025696D20256973002569792025696420F6
:1005B0002569682025696D20256973005072696E70
:1005C000742074696D653A200050726F62696E67BD
:1005D000204661696C65640A00205A3A200020595F
:1005E0003A200042656420583A2000000070420022
:1005F00000704200002041000096430080984300B4
:1006000000C843FFFFFF5A2050726F62652050619F
:100610007374204265640A00486F6D652058592044
:1006200066697273740A0047322F4733206261642F
:1006300020706172616D65746572730A0020746F59
:100640006F206C6F6E6720657874727573696F6E5A
:100650002070726576656E7465640A0020636F6C45
:100660006420657874727573696F6E207072657638
:10067000656E7465640A0024F4D43050C38E20C2C1
:10068000A24017828B7011127A910D816CD90AA841
:1006900061E108C7586607615143061E4B5D05C1FD
:1006A00045A7041A411104093D98037139310340EB
:1006B00036DB0265339102D4305402802E1D026372
:1006C0002CEE01752AC501B028A001102781018FE9
:1006D0002564012B244B01E0223401AC211F018D44
:1006E000200D01801FFC00841EED00971DDF00B867
:1006F0001CD200E61BC600201BBC00641AB200B26C
:1007000019A8000A19A0006A189900D11791004091
:10071000178B00B516840031167E00B31579003AA8
:10072000157300C7146F0058146A00EE1366008832
:1007300013630025135E00C7125B006C125700158F
:10074000125400C111510070114F0021114B00D6FD
:100750001049008D1047004610440002104200C0AE
:100760000F4000800F3E00420F3C00060F3B00CBC5
:100770000E3800930E37005C0E3500270E3400F360
:100780000D3200C10D3100900D3000600D2E003291
:100790000D2D00050D2C00D90C2B00AE0C29008569
:1007A0000C29005C0C2700350C27000E0C2600E8F5
:1007B0000B2400C40B2400A00B23007D0B23005A44
:1007C0000B2100390B2100180B2000F80A1F00D95B
:1007D0000A1E00BB0A1E009D0A1D00800A1D006340
:1007E0000A1C00470A1B002C0A1B00110A1A00F7FA
:1007F000091A00DD091900C4091900AB0919009292
:100800000917007B091800630917004C0916003608
:10081000091600200916000A091500F5081500E060
:10082000081400CC081400B8081400A408140090A0
:100830000813007D0812006B0813005808120046C8
:1008400008120034081100230811001208110001D9
:10085000081100F0071000E0071000D0071000C0DA
:10086000071000B0070F00A107100091070E0083CA
:10087000070F0074070F0065070E0057070E0049A9
:10088000070E003B070D002E070E0020070D00137A
:10089000070D0006070D00F9060C00ED060D00E03F
:1008A000060C00D4060C00C8060C00BC060C00B0F8
:1008B000060C00A4060B0099060C008D060B0082A6
:1008C000060B0077060B006C060B0061060A00574A
:1008D000060B004C060A0042060A0038060A002EE3
:1008E000060A0024060A001A060A00100609000774
:1008F000060A00FD050900F4050900EB050900E200
:10090000050900D9050900D0050900C7050900BE81
:10091000050900B5050800AD050800A50509009CFE
:10092000050800940508008C050800840508007C73
:10093000050800740508006C050700650508005DE2
:10094000050700560508004E05070047050700404B
:1009500005080038050700310507002A05070023B0
:100960000507001C050600160507000F050700080F
:1009700005060002050700FB040600F5040700EE6B
:10098000040600E8040600E2040700DB040600D5C4
:10099000040600CF040600C9040600C3040600BD17
:1009A000040600B7040600B1040500AC040600A666
:1009B000040600A00405009B0406009504050090B1
:1009C0000406008A04050085040500800406007AF8
:1009D00004050075040500700405006B040500663D
:1009E000040500610405005C04050057040500527D
:1009F0000405004D04050048040500430405003EBD
:100A00000404003A04050035040500300404002CF9
:100A100004050027040400230405001E0404001A32
:100A200004040016040500110404000D0404000968
:100A30000405000404040000040400FC030400F89E
:100A4000030400F4030400F0030400EC030400E8D2
:100A5000030400E4030400E0030400DC030400D802
:100A6000030400D4030400D0030400CC030400C832
:100A7000030300C503030024F404D9201BC40C5C49
:100A80000E9804C4095F0265077101F405F900FBC3
:100A900004B30048048700C10369005803550003EC
:100AA000034500BE023A008402310053022A0029A5
:100AB00002250004022000E4011C00C8011900AF57
:100AC00001170098011400840113007101100061E6
:100AD00001100051010E0043010D0036010B002BE7
:100AE000010B0020010B00150109000C0109000396
:100AF000010800FB000800F3000800EB000700E419
:100B0000000600DE000600D8000600D2000600CC79
:100B1000000500C7000500C2000500BD000400B9C3
:100B2000000400B5000400B1000400AD000400A9F9
:100B3000000400A5000300A20003009F0004009B26
:100B4000000300980003009500020093000300904A
:100B50000003008D0002008B000300880002008665
:100B600000020084000300810002007F0002007D7B
:100B70000002007B0002007900020077000100768D
:100B80000002007400020072000100710002006F98
:100B90000002006D0001006C0002006A00010069A3
:100BA00000020067000100660001006500010064AA
:100BB0000002006200010061000100600001005FAE
:100BC0000002005D0001005C0001005B0001005AB2
:100BD00000010059000100580001005700010056B3
:100BE00000010055000100540001005300000053B3
:100BF0000001005200010051000100500001004FAF
:100C00000001004E0000004E0001004D0001004CAC
:100C10000001004B0000004B0001004A00010049A8
:100C200000010048000000480001004700010046A4
:100C3000000000460001004500000045000100449E
:100C40000001004300000043000100420000004298
:100C50000001004100000041000100400001003F90
:100C60000000003F0001003E0000003E0001003D8A
:100C70000000003D0001003C0000003C0000003C82
:100C80000001003B0000003B0001003A0000003A78
:100C90000001003900000039000100380000003870
:100CA0000000003800010037000000370001003666
:100CB000000000360000003600010035000000355D
:100CC0000000003500010034000000340000003452
:100CD0000001003300000033000000330001003247
:100CE000000000320000003200010031000000313D
:100CF0000000003100010030000000300000003032
:100D00000001002F0000002F0000002F0000002F26
:100D10000001002E0000002E0000002E0001002D1A
:100D20000000002D0000002D0000002D0001002C0F
:100D30000000002C0000002C0000002C0001002B03
:100D40000000002B0000002B0000002B0001002AF7
:100D50000000002A0000002A0000002A00010029EB
:100D600000000029000000290000002900000029DF
:100D700000010028000000280000002800000028D2
:100D800000000028000100270000002700000027C5
:100D900000000027000000270001002600000026B8
:100DA00000000026000000260000002600010025AB
:100DB000000000250000002500000025000000259F
:100DC0000000002500010024000000240000002491
:100DD0000000002400000024000100230000002384
:100DE0000000002300000023000000230000002377
:100DF0000000002300010022000000220000002269
:100E0000000000220000002200000022000100215A
:100E1000000000210000002100000021000000214E
:100E2000000000210000002100010020000000203F
:100E30000000002000000020000000200000002032
:100E400000000020000000200001001F0000001F23
:100E50000000001F0000001F0000001F0000001F16
:100E60000000001F0001001E0000001E0000001E08
:100E70000000001E000000232C0000B822000056D5
:100E80001800003A0F0000B8080000B1040000711B
:100E90000200003E0100004572726F722077726995
:100EA00074696E6720746F20454550524F4D210A7A
:100EB00000363726033C3D380E2E303E1224221ECB
:100EC0001A1C1808440A07430809070001627573D1
:100ED000793A2070617573656420666F7220696E5F
:100EE0007075740A00627573793A20706175736564
:100EF0006420666F7220757365720A00627573797B
:100F00003A2070726F63657373696E670A002121FE
:100F1000204B494C4C2063617573656420627920D5
:100F2000746F6F206D75636820696E616374697694
:100F3000652074696D65202D2063757272656E740D
:100F400020636F6D6D616E643A20005072696E743B
:100F500065722073746F70706564206475652074A9
:100F60006F206572726F72732E20466978207468E4
:100F700065206572726F7220616E642075736520E2
:100F80004D39393920746F20726573746172742E13
:100F9000202854656D70657261747572652069737F
:100FA0002072657365742E20536574206974206106
:100FB000667465722072657374617274696E6729F4
:100FC0000A004E6F20436865636B73756D20776907
:100FD0007468206C696E65206E756D6265722C2078
:100FE0004C617374204C696E653A200063686563D8
:100FF0006B73756D206D69736D617463682C204C23
:10100000617374204C696E653A20004C696E6520EE
:101010004E756D626572206973206E6F74204C612D
:101020007374204C696E65204E756D6265722B314C
:101030002C204C617374204C696E653A20004D3150
:101040003130005072696E7465722068616C74652D
:10105000642E206B696C6C28292063616C6C65645C
:10106000210A006563686F3A004572726F723A0038
:10107000204D393220580020496E76616C69642019
:10108000657874727564657220004361703A002956
:101090000A0020746F20003F5A206F7574206F661D
:1010A0002072616E6765202800290A0020746F2075
:1010B000003F59206F7574206F662072616E6765FE
:1010C00020282D00290A0020746F20003F58206F2F
:1010D0007574206F662072616E676520282D005040
:1010E000726F6265204F66667365742058005265A2
:1010F00073656E643A200020573A0020573A00206A
:10110000746F6F206C6F6E67206578747275736989
:101110006F6E2070726576656E7465640A00206378
:101120006F6C6420657874727573696F6E2070726D
:101130006576656E7465640A00454550524F4D20D2
:101140006461746173697A65206572726F722E0AC8
:1011500000290A002062797465733B206372632062
:10116000002073746F7265642073657474696E67B0
:101170007320726574726965766564202800202882
:1011800063616C63756C6174656429210A002021B8
:101190003D2000454550524F4D20435243206D693C
:1011A000736D61746368202D202873746F72656499
:1011B0002920002053697A653A2000496E646578D9
:1011C0003A2000204D61726C696E3D563736290A0F
:1011D00000454550524F4D2076657273696F6E2001
:1011E0006D69736D617463682028454550524F4D99
:1011F0003D0048617264636F6465642044656661A4
:10120000756C742053657474696E6773204C6F61DC
:101210006465640A0000009643000096430000489D
:101220004200002042F43DA042F43DA04296E3C7B4
:10123000430080DE43D0070000D0070000640000B8
:1012400000102700003B20003A0A0020204D3930D2
:1012500030204B004C696E65617220416476616E8E
:1012600063653A0020204D3835312058005A2D5002
:10127000726F6265204F66667365740020440020BB
:10128000490020204D3330342050002044002049B4
:101290000020204D333031205000504944207365E8
:1012A0007474696E67733A0020204D3230362058CE
:1012B00000486F6D65206F66667365743A00204A5A
:1012C0000020530020204D3230352042004164760A
:1012D000616E6365643A20423C6D696E5F73656759
:1012E0006D656E745F74696D655F75733E20533C08
:1012F0006D696E5F66656564726174653E20543C1D
:101300006D696E5F74726176656C5F666565647247
:101310006174653E204A3C6A756E635F6465763E23
:101320000020520020204D323034205000416363B1
:10133000656C65726174696F6E2028756E6974736F
:101340002F7332293A20503C7072696E745F61636A
:1013500063656C3E20523C726574726163745F61B8
:101360006363656C3E20543C74726176656C5F61AA
:101370006363656C3E0020204D3230312058004DB3
:101380006178696D756D20416363656C6572617428
:10139000696F6E2028756E6974732F7332293A0055
:1013A00020450020204D3230332058004D617869AF
:1013B0006D756D206665656472617465732028754E
:1013C0006E6974732F73293A0053746570732070BB
:1013D000657220756E69743A0020204D32303020DD
:1013E00044300A0020204D3230302044002044692F
:1013F0007361626C65640A0046696C616D656E7448
:101400002073657474696E67733A0020286D6D29C6
:10141000002020473231202020203B20556E697467
:101420007320696E206D6D00486F6D696E67204690
:1014300061696C6564002042403A0020403A002017
:1014400020506C616E6E6572427566666572427997
:101450007465733A20002046726565204D656D6F96
:1014600072793A2000436F6D70696C65643A204D63
:10147000617220203420323032300A00204C6173F7
:101480007420557064617465643A20323032302DB6
:1014900030322D3237207C20417574686F723A20CB
:1014A0002870696E6775696E70666C65676572260F
:1014B000466F6F64466967687465722C20415357A4
:1014C00058312D46572D4D4F44290A00322E302ECB
:1014D000342E340A004D61726C696E0020536F66C1
:1014E00074776172652052657365740A00205761D4
:1014F000746368646F672052657365740A002042E4
:10150000726F776E206F75742052657365740A0070
:101510002045787465726E616C2052657365740A3B
:1015200000506F77657255700A0073746172740AA7
:1015300000205A3A0020593A0020583A00656E645B
:1015400073746F7073206869743A20000000210082
:10155000240027002A002D00300033000101000084
:10156000040107010A0100002200250028002B00C9
:101570002E003100340002010000050108010B01BA
:10158000000020002300260029002C002F0032003C
:101590000001000003010601090105050505070515
:1015A00008080808020202020A0A080804040404DF
:1015B000010101010101010103030303030303030B
:1015C000040707070C0C0C0C0C0C0C0C020202029A
:1015D00006060606060606060B0B0B0B0B0B0B0B83
:1015E0000102102020080810204010204080020135
:1015F000020108040201010204081020408080401A
:101600002010080402018004020180402010080418
:1016100002010804020101020408102040800102B6
:1016200004081020408000000A0B02090C0D0E086F
:10163000070304010000000000000000000000009B
:10164000000000000000000000000000000000009A
:101650000000121110000000000000000000000057
:101660000000000000000000000000002364656628
:10167000696E652044454641554C545F00006265E3
:1016800064004B6420004B6920004B7020005049DF
:1016900044204175746F74756E652066696E697358
:1016A000686564212050757420746865206C6173CE
:1016B00074204B702C204B6920616E64204B642099
:1016C000636F6E7374616E74732066726F6D2062E7
:1016D000656C6F7720696E746F20436F6E66696703
:1016E00075726174696F6E2E680A0050494420411A
:1016F00075746F74756E65206661696C6564212010
:1017000074696D656F75740A0050494420417574A1
:101710006F74756E65206661696C6564212054651F
:101720006D706572617475726520746F6F20686981
:1017300067680A00204B643A2000204B693A200079
:10174000204B703A20000A20436C61737369632058
:10175000504944200A00204B643A2000204B693A4B
:101760002000204B703A20000A204E6F206F7665D3
:101770007273686F6F740A002054753A2000204B12
:10178000753A2000206D61783A2000206D696E3A2C
:10179000200020643A200020626961733A200050E2
:1017A0004944204175746F74756E6520737461725D
:1017B000740A00504944204175746F74756E652039
:1017C0006661696C6564212054656D706572617431
:1017D00075726520746F6F20686967680A005049E8
:1017E00044204175746F74756E65206661696C651F
:1017F000642120426164206578747275646572208A
:101800006E756D6265720A00000096430000964393
:101810000000C843000000000000A0C0000000005D
:10182000290A002062797465733B2063726320008B
:1018300053657474696E67732053746F72656420A6
:1018400028006F70656E0054524947474552454421
:10185000003A20007A5F6D696E00795F6D696E00F5
:10186000785F6D696E005265706F7274696E672083
:10187000656E6473746F70207374617475730A009D
:10188000205A3A0020593A0020436F756E74205850
:101890003A0020453A00205A3A0020593A00583A76
:1018A000005761726E696E673A20486F6D696E67A6
:1018B0002042756D702044697669736F72203C20F8
:1018C000310A000202040000A0400000A040000015
:1018D000004000000001000000010000800055559C
:1018E00055000000400033333300AAAA2A00499271
:1018F000240000002000C7711C0099991900D145EF
:101900001700555515003BB1130024491200111161
:101910001100000010000F0F0F00E3380E00437994
:101920000D00CCCC0C00C3300C00E8A20B006421ED
:101930000B00AAAA0A00703D0A009DD80900427B4C
:10194000090092240900DCD30800888808001042AE
:10195000080000000800F0C10700878707007550E5
:101960000700711C07003EEB0600A1BC0600699051
:10197000060066660600703E06006118060017F451
:10198000050074D105005BB00500B29005006272DD
:1019900005005555050078390500B81E05000505F8
:1019A00005004EEC040087D40400A1BD040090A7FC
:1019B000040049920400C17D0400EE690400C7568A
:1019C0000400444404005C32040008210400411077
:1019D0000400000004003FF00300F8E0030026D2FA
:1019E0000300C3C30300CCB503003AA803000A9B5D
:1019F0000300388E0300C08103009F750300D06987
:101A00000300505E03001D53030034480300913D62
:101A100003003333030016290300381F0300971512
:101A20000300300C0300030303000BFA020049F12A
:101A30000200BAE802005CE002002DD802002DD0BE
:101A4000020059C80200B0C0020031B90200DAB188
:101A50000200AAAA0200A0A30200BC9C0200FA9500
:101A600002005C8F0200DF88020082820200457C57
:101A700002002776020027700200436A02007C649D
:101A80000200D05E02003F590200C85302004865C0
:101A90006174696E67204661696C656400486561C0
:101AA00074696E67206661696C656400202D204949
:101AB0006E76616C696420657874727564657220F5
:101AC0006E756D62657220210A0070012C01900113
:101AD0002701B0012201C0011D01F001180110020F
:101AE000130130020E016002090190020401C002DC
:101AF000FF000003FA004003F5008003F000D0036C
:101B0000EB002004E6007004E100E004DC00400586
:101B1000D700C005D2004006CD00D006C80080071F
:101B2000C3003008BE00F008B900C009B400B00A14
:101B3000AF00B00BAA00D00CA500000EA000500F03
:101B40009B00C01096005012910000148C00C0152C
:101B50008700B0178200B0197D00D01B7800001EEE
:101B6000730040206E0090226900F024640040273A
:101B70005F0090295A00E02B5500102E50002030B5
:101B80004B0010324600E033410090353C001037E6
:101B9000370070383200A0392D00B03A2800A03B41
:101BA0002300603C1E00103D1900903D1400103EC3
:101BB0000F00703E0A00C03E0500003F0000403F9D
:101BC000FBFF803FF6FFC03FF1FF544845524D41B7
:101BD0004C2052554E4157415900546865726D6111
:101BE0006C2052756E61776179004572723A204DB2
:101BF000415854454D50004D415854454D50207466
:101C00007269676765726564004572723A204D4972
:101C10004E54454D50004D494E54454D5020747220
:101C20006967676572656400202F00FFFDFCFAF8A4
:101C3000F6F4F2F0EEECEAE9E7E5E3E1E0DEDCDA27
:101C4000D9D7D5D4D2D0CFCDCBCAC8C7C5C3C2C0CF
:101C5000BFBDBCBAB9B7B6B4B3B2B0AFADACAAA948
:101C6000A8A6A5A4A2A1A09E9D9C9A999897959498
:101C70009392908F8E8D8B8A8988878684838281C8
:101C8000807F7E7D7B7A79787776757473727170D8
:101C90006F6E6D6C6B6A69686766656463626160CC
:101CA0005F5E5D5C5B5A59585857565554535251B4
:101CB00050504F4E4D4C4B4A4A4948474646454482
:101CC00043424241403F3E3E3D3C3B3B3A3938383F
:101CD00037363535343332323130302F2E2E2D2CED
:101CE0002B2B2A292928272726252524232322218F
:101CF0002120201F1E1E1D1C1C1B1B1A1919181821
:101D0000171616151514131312121111100F0F0EAA
:101D10000E0D0D0C0C0B0A0A090908080707060628
:101D2000050504040303020201000000426564008B
:101D3000453100626564002C2073797374656D20F1
:101D400073746F7070656421204865617465725F9B
:101D500049443A2000220A00556E6B6E6F776E2060
:101D6000636F6D6D616E643A20220000068A112453
:101D70001FBECFEFD1E2DEBFCDBF00E00CBF13E04E
:101D8000A0E0B2E0E6E4FBE201E00BBF02C0079096
:101D90000D92A430B107D9F72EE0A4E0B3E001C062
:101DA0001D92AB34B207E1F71EE0C7EBDEE000E0C6
:101DB00006C021970109802FFE010E946595C63B50
:101DC000D10780E00807A9F70E94BC860C94A19572
:101DD0000C9400002F923F924F925F926F927F92ED
:101DE0008F929F92AF92BF92CF92DF92EF92FF922B
:101DF0000F931F93CF93DF93CDB7DEB7CE55D109A5
:101E00000FB6F894DEBF0FBECDBF20919C032F9676
:101E10002FAF2F9791E090939C0380919B038D347B
:101E200009F4DFC4843511F40C944D1E873411F08D
:101E30000C94681E2090990330909A0335E1231684
:101E4000310411F40C946A1E94F454E02516310404
:101E500044F482E0281631040CF00EC137FE35C080
:101E6000BCC494E02916310409F492C1B6C4AAE5B1
:101E70002A16310409F43CC45CF4ECE12E1631045A
:101E800009F4C5C1FEE12F16310409F4D0C1A5C47F
:101E90002BE52216310409F42FC43CE52316310446
:101EA00009F09BC454E6252E52E0352E6CE4E62E54
:101EB00063E0F62E47E252E05FA74EA775E6C72E15
:101EC00073E0D72E00E010E057C4809137028823DA
:101ED00011F40C946A1E0E947F4188E893E00E94EE
:101EE000E77180917F0B83FD88C020913302309190
:101EF0003402409135025091360260919403709102
:101F0000950380919603909197030E94438E8823B6
:101F100009F473C08091410581111EC020E030E0BA
:101F2000A9016091460570914705809148059091FF
:101F300049050E9489920E94CD93209148023091D8
:101F400049026217730744F40E94AA358CE596E0B3
:101F50000E94883511E001C010E0209133023091D9
:101F60003402409135025091360260919403709191
:101F7000950380919603909197030E9488926B013C
:101F80007C0120E030E0A9010E94AF9487FF04C0EB
:101F9000F7FAF094F7F8F09420914402309145025A
:101FA0004091460250914702C701B6010E94A88E97
:101FB00020E030E048E453E40E94AF9418163CF46B
:101FC0000E94AA358DE396E00E94883502C0112355
:101FD000A1F08091940390919503A0919603B09104
:101FE00097038093330290933402A0933502B09309
:101FF000360284E993E00E94BD822AE037ED43E295
:102000005CE36091230270912402809125029091FB
:1020100026020E94A88E6B017C01609121027091C2
:102020002202072E000C880B990B0E94498E9B01FF
:10203000AC01C701B6010E94A88E69837A838B83A5
:102040009C83C12CD12C76018E010F5F1F4F24E998
:1020500033E040E953E06CE873E088E893E00E94E5
:10206000578680E1E8E8F3E0A7E2B2E001900D9244
:102070008A95E1F70C946A1E80913702882311F447
:102080000C946A1E0E947F4182E50E9431338823AE
:1020900009F44CC00E94B1326B017C0120E030E0B9
:1020A000A9010E94438E882311F40C943B1F809158
:1020B000270290912802A0912902B0912A028EA7AE
:1020C0009FA7A8ABB9AB20912B0230912C02409175
:1020D0002D0250912E022AAB3BAB4CAB5DAB8090F6
:1020E000880390908903A0908A03B0908B0340905E
:1020F0008C0350908D0360908E0370908F03A50128
:102100009401BC01CD010E94438E81110C94801E6C
:10211000A30192016AA97BA98CA99DA90E94438E63
:10212000882311F40C943B1F0C94801E89E40E94B8
:102130003133882329F00E94B1326B017C0103C046
:10214000C12CD12C76018AE40E943133882311F40A
:102150000C94421F0E94B1326EAB7FAB88AF99AF37
:1021600020E030E0A901C701B6010E94438E811131
:102170000C944F1F20E030E0A9016EA97FA988AD23
:1021800099AD0E94438E81110C944F1F0C943B1FFC
:1021900080E50E943133882379F08091810390910A
:1021A0008203009749F04AE050E060E070E00E944E
:1021B000C88C6B017C0103C0C12CD12C760183E556
:1021C0000E943133882361F00E94B13220E030E078
:1021D0004AE754E40E94A88E0E94D2936B017C01CE
:1021E0000E94AD820E943761C60ED71EE81EF91EFE
:1021F0000E943761DC01CB018C199D09AE09BF0932
:10220000B7FD02C00C946A1E0E946237F1CF809124
:1022100080038770873011F00C94102360E08FE406
:102220000E949D4481110C946A1E0C941023C0904E
:102230002702D0902802E0902902F0902A02809094
:10224000710390907203A0907303B090740388E5BB
:102250000E943133811107C0A5019401C701B60165
:102260000E94899202C00E94B1322B013C016E8B08
:102270007F8B888F998FC0902B02D0902C02E0909A
:102280002D02F0902E028090750390907603A0901E
:102290007703B090780389E50E943133811107C03C
:1022A000A5019401C701B6010E94899202C00E9453
:1022B000B1324B015C016A8F7B8F8C8F9D8FBE0189
:1022C000665E7F4FCE0146960E94B83E882311F489
:1022D0000C946A1E0E94A17261E085E40E949D44F4
:1022E000382ECE0101962CE0DC011D922A95E9F7EB
:1022F00049825A826B827C828D829E82AF82B886AE
:10230000BE016B5F7F4F0E94B83E882309F487C1EE
:1023100020917103309172034091730350917403C3
:10232000C301B2010E9488926AAB7BAB8CAB9DABC0
:1023300069837A838B839C83209175033091760324
:102340004091770350917803C501B4010E948892AF
:102350009B01AC016D837E838F839887E0902F0271
:10236000F09030020091310210913202E986FA8633
:102370000B871C878091230290912402A091250253
:10238000B09126028EA79FA7A8ABB9AB85E595E5CE
:10239000A5E0B3E48093230290932402A093250246
:1023A000B09326021E8E1F8E18A219A2DE015E9621
:1023B0006D016AA97BA98CA99DA90E94C07281E0C8
:1023C0000E94608081110C94FC2680917F0382FF23
:1023D00013C02091790330917A0340917B0350918F
:1023E0007C0360E070E080E090EC0E9488926AAB31
:1023F0007BAB8CAB9DAB08C020E030E040E251EC01
:102400002AAB3BAB4CAB5DABC0907903D0907A0369
:10241000E0907B03F0907C0320E030E0A901C7014D
:10242000B6010E94438E87FF0BC0A701960160E0B2
:1024300070E080E791E40E9488926B017C0106C005
:10244000C12CD12CA0E7EA2EA1E4FA2EA701960117
:1024500060912F027091300280913102909132028E
:102460000E94AF9418160CF04CC0CAA6DBA6ECA6CE
:10247000FDA6C12CD12CF0E2EF2EF1E4FF2ECEA26E
:10248000DFA2E8A6F9A6BE016A5D7F4FCE018A965B
:102490000E947C7310916403109264030E949A73EB
:1024A0008091600390916103A0916203B0916303F6
:1024B00080932F0290933002A0933102B0933202A6
:1024C0000E94C07312FF1DC0CAA2DBA2ECA2FDA233
:1024D00020E030E040EA50E460912F027091300239
:1024E00080913102909132020E9489926E8F7F8F8B
:1024F00088A399A3BE016E5D7F4FCE014E960E94C8
:102500007C738AA99BA9ACA9BDA98AA39BA3ACA3F0
:10251000BDA380E090E0A0EAB0E48E8F9F8FA8A3D7
:10252000B9A3BE01625E7F4FCE0182960E947C738A
:1025300010916403109264030E949A738091600367
:1025400090916103A0916203B091630380932F0285
:1025500090933002A0933102B09332020E94C07374
:1025600012FF1EC0C0902F02D0903002E0903102C6
:10257000F09032022091790330917A0340917B03ED
:1025800050917C0360E070E080E090E40E948892CB
:102590009B01AC01C701B6010E94AF94181634F438
:1025A000C12CD12CE0ECEE2EEFE7FE2E209179032A
:1025B00030917A0340917B0350917C03C701B601AF
:1025C0000E9489927B018C019B01AC010E94359590
:1025D000811108C091E0391205C00E94B53E8111F9
:1025E0000C94FC262EA53FA548A959A920932302A7
:1025F0003093240240932502509326029701A801AC
:10260000B701C8010E943595882369F00E94B53E44
:102610000E94A73589EC95E00E94883504C0E12C22
:10262000F12C00EC1FE79701A801B701C8010E9437
:102630003595811157C020E030E0A901C301B201F6
:102640000E94438E87FF05C067E177EB81E598EB39
:1026500004C067E177EB81E598E3A30192010E9452
:102660008992AB01BC0183EE95E00E94303720E0F7
:1026700030E0A901C501B4010E94438E87FF05C067
:1026800067E177EB81E598EB04C067E177EB81E5E3
:1026900098E3A50194010E948992AB01BC018EEDE3
:1026A00095E00E94303720E030E0A901B701C80171
:1026B0000E94438E87FF05C067E177EB81E598EBC9
:1026C00004C067E177EB81E598E39701A8010E94D8
:1026D0008992AB01BC0189ED95E00E9430378AE018
:1026E0000E9481350E9488720E9427750C946A1E90
:1026F000109298030C946A1E8FE0809398030C94B8
:102700006A1E0E94B1322B013C01133049F0F601E0
:1027100020813181428153810E9488922B013C01AA
:10272000AEA5BFA52D913D914D915C91C301B20124
:102730000E9488924B015C012DEB37E346E855EB94
:102740000E94AF9487FD20C02DEB37E346E855E3A8
:10275000C501B4010E94438E1816B4F01F5FB4E0A7
:10276000EB0EF11CEEA5FFA53496FFA7EEA7F4E053
:10277000CF0ED11C143039F1D1018D911D010E9471
:102780003133882359F3BDCF133051F440923302D3
:1027900050923402609235027092360201E0DECF30
:1027A000A5019401F70160817181828193810E946A
:1027B0008992D7016D937D938D939C931397812F6D
:1027C0000E94C771CBCF002321F083E392E00E94E7
:1027D000BD820E9427750C946A1E0E9449860C9443
:1027E0006A1E0091990310919A030C38110509F49F
:1027F0003CC30CF091C00936110509F469C20CF014
:102800004EC00D34110509F439C2DCF40F31110545
:1028100009F44CC154F40131110509F433C10231FA
:10282000110509F477C30C944A1E0B34110509F401
:102830000CC20CF00EC20A32110509F4DEC10C9470
:102840004A1E0435110509F465C3DCF4023511058F
:1028500009F452C30CF057C30135110511F00C9463
:102860004A1E0E94A7790E94EA670E94DC841092A7
:10287000300568EE73E080E090E00E948D340C94A7
:102880006A1E0C35110509F494C30836110509F4C4
:10289000F9C10535110511F00C944A1E67C30137C3
:1028A000110509F4BBC29CF40D36110509F40CC2E4
:1028B0003CF40B36110509F442C20CF41FC2A1C24C
:1028C0000F36110509F454C20CF441C29DC20637FB
:1028D000110509F466C46CF40337110509F4F8C353
:1028E0000CF4F1C30537110511F40C946A1E0C9415
:1028F0004A1E0837110509F493C40CF48EC4093735
:10290000110511F00C944A1E10927D0310927E0363
:102910000E9471760C946A1E0E3221E0120711F4A7
:102920000C94271D0CF050C00D3C110509F483C513
:10293000FCF4083C110509F4B8C474F40B39110512
:1029400009F4B4C20E3B110509F4ADC206391105F4
:1029500011F00C944A1E6CC40B3C110509F416C509
:102960000CF035C5093C110509F4E9C40C944A1E64
:102970000D3D110509F45FC6BCF4033D110509F4D2
:1029800087C50C3D110509F449C60E3C110511F02F
:102990000C944A1EF4E6CF2EF2E0DF2EACE0EA2ED5
:1029A000A3E0FA2E10E061C5023241E0140709F4F9
:1029B000E3C60D3251E0150709F457C7023E110571
:1029C00011F00C944A1E8DC6043F81E0180711F4E3
:1029D0000C94E31D74F50139B1E01B0711F40C945C
:1029E0006E1D8CF40033F1E01F0709F4BDC714F429
:1029F0000C946B1D0039114011F00C944A1E0E947A
:102A0000AD820C946A1E0A3941E0140709F403C22E
:102A10000C3A51E0150711F40C94741D0239114061
:102A200011F00C944A1E0E94B53E0E9427750C942A
:102A30006A1E083FA1E01A0711F40C94F21D6CF411
:102A4000063FE1E01E0711F40C94E61D14F00C940F
:102A5000E91D0E941F5F0C946A1E043823E01207D0
:102A600011F40C94021E073E33E0130711F40C948A
:102A70003E1E0335134011F00C944A1E0E947A3D0D
:102A80000C946A1E8091480384FF02C00C941725A1
:102A900080914A0387FF02C00C94172580914B0355
:102AA000837011F00C9417250C9434250E947B67D9
:102AB0007B018C0120E831E541E050E00E94319239
:102AC000C9016DE671E00E9451954B015C01C8019E
:102AD000B70120E13EE040E050E00E943192CA019F
:102AE000B90128E130E040E050E00E943192762EBA
:102AF000672EC62ED72E4CE3242E312C412C512C80
:102B0000C801B701A20191010E943192F62EE72E71
:102B1000CA01B901A20191010E943192CB018E013B
:102B20000F5F1F4F8114910499F0EF92FF927F93F2
:102B30006F936F927F92BF92AF929F928F9288EA2B
:102B400095E09F938F931F930F930E94158E13C050
:102B5000A114B104B1F0EF92FF927F936F936F9243
:102B60007F92BF92AF9288E995E09F938F931F93D6
:102B70000F930E94158E0FB6F894DEBF0FBECDBF27
:102B800030C0CD2879F0EF92FF927F936F936F92D0
:102B90007F928CE895E09F938F931F930F930E94F1
:102BA000158EE9CF892B69F0EF92FF927F936F9397
:102BB00084E895E09F938F931F930F930E94158E47
:102BC000DACFEF92FF9280E895E09F938F931F9367
:102BD0000F930E94158E0F900F900F900F900F90F3
:102BE0000F900E94AA35B8018CEB95E00E949635B3
:102BF0008AE00E9481350C946A1E83E50E9431337D
:102C0000882311F40C946A1E0E948642F82E6DE00F
:102C100070E080E50E9438428C0197FF02C00C945E
:102C20006A1E893021F4F09230050C946A1E60E02F
:102C300089E40E949D4481110C943E25802F0E94BE
:102C40001F3581116BC50C943E250E94C9670C94F9
:102C50006A1E80914703813011F00C946A1E82E055
:102C6000809347030E94376160934303709344034A
:102C700080934503909346030C946A1E0E94EA6772
:102C80000C946A1E80917F0B83FF02C00C946A1E15
:102C90000E949A4287FF02C00C946A1E83E50E943C
:102CA0003133882369F00E94B1320E94CD93CB0169
:102CB0000E948D610E945C79811102C00E94EA67C6
:102CC0000E9406820C946A1E0E94C2420C946A1EE4
:102CD0000E949A42182F87FD0AC08EE695E00E9456
:102CE0008835812F0E94D2618AE00E9481352F961B
:102CF0003FAD2F9730939C030C940E2780E50E94E4
:102D0000B5868111E7C781E40E94E832882321F06B
:102D100060913005062F02C00FEF10E083E50E949E
:102D20003133882349F00E94A1328B016F3F710536
:102D300019F010F00FEF10E000933005CBC780E5DD
:102D40000E94B5868111C6C710923005C3C78EE4B4
:102D50000E943133882309F4BDC70E94A1326093D9
:102D60003F03709340038093410390934203B2C7A3
:102D700083E50E94E832882329F083E50E94B58626
:102D800080937F0B0E94AA3587E695E00E948835E4
:102D900080917F0B882369F13DE5E32E35E0F32E2A
:102DA00000E010E020E080917F0B90E0A0E0B0E038
:102DB000002E04C0B695A795979587950A94D2F7EB
:102DC00080FF0EC0DD24D394D20E222319F08CE2B2
:102DD0000E948135F701859194910E9488352D2DAF
:102DE0000F5F1F4F42E0E40EF11C05301105D9F6CC
:102DF00004C089E595E00E9488358AE00E9481350B
:102E000069C71092200266C741E060E070E08BE481
:102E100095E00E94AD350E94CC345CC783E50E94EA
:102E20003133882371F00E948642282F30E02D3301
:102E300031051CF480931F024DC78CE380931F0261
:102E400049C70E94AA35C0901F02D12CE12CF12C59
:102E500084E495E00E9488354AE0C701B6010E94EB
:102E600024368AE00E94813535C780917F0B83FD2F
:102E700031C783E50E943133882371F00E94B1325B
:102E80000E94CD936C3871050CF48B0110933103C3
:102E9000009330030E946F790E945C7981111AC7F8
:102EA0000E94EA6717C70E94883B14C783E50E9407
:102EB0003133882309F40EC70E948642182F90E010
:102EC000CD970CF01CE3109327030E9437616B0130
:102ED0007C01212F30E0A8EEB3E00E947992C60E6B
:102EE000D71EE81EF91EC0922303D0922403E0925D
:102EF0002503F0922603EEC6809198038F7D8061B2
:102F000080939803E7C6809198038F7E80628093B8
:102F10009803E0C683E50E943133882399F00E942C
:102F2000B13220E030E04AE754E40E94A88E0E94CB
:102F3000D29360931B0270931C0280931D029093A6
:102F40001E02C8C68091480384FF02C00C944C2521
:102F500080914A0387FF02C00C944C2580914B035B
:102F6000837011F00C944C250C947E2583E50E940F
:102F7000E832882309F4AEC60E9437616093840367
:102F80007093850380938603909387030E94B132E8
:102F900020E030E04AE754E40E94A88E0E94D293D9
:102FA00060931F0370932003809321039093220367
:102FB00091C60E949A4287FD8DC69091480394FD68
:102FC00004C090914A0397FF0AC094E6C92E92E08C
:102FD000D92E20E8E22E2BE0F22E10E009C09091CD
:102FE0004B03937091F7682F81E00E944B4272C6A9
:102FF000D6018D916D010E943133882309F459C0A7
:10300000133009F04FC00E94B1324B015C0120E047
:1030100030E040EA51E40E94438E87FF3AC0A501A8
:1030200094016091A00B7091A10B8091A20B9091E3
:10303000A30B0E9465932B013C019B01AC016091A5
:10304000B00B7091B10B8091B20B9091B30B0E94B9
:10305000A88E6093B00B7093B10B8093B20B9093DA
:10306000B30B609124057091250580912605909100
:1030700027050E94478EA30192010E94A88E0E94FC
:10308000D293609324057093250580932605909331
:1030900027058092A00B9092A10BA092A20BB09258
:1030A000A30B07C00E94B132F701648B758B868B2E
:1030B000978B1F5FF4E0EF0EF11C143009F098CFEE
:1030C0000E943E8407C60E94AD820E94277502C6F8
:1030D0008EE694E00E94883560E08EE594E00E94E0
:1030E000654160E089E494E00E94654161E082E42A
:1030F00094E00E94654161E087E394E00E946541AD
:1031000061E087E294E00E94654160E08EE194E036
:103110000E94654161E084E194E00E94654160E0C5
:103120008AE094E00E94654161E082E094E00E94C0
:10313000654160E084EF93E00E94654160E086EEC7
:1031400093E00E94654160E087ED93E00E94654155
:1031500060E089EC93E00E94654160E083EB93E0DE
:103160000E94654160E082EA93E00E94654160E070
:1031700083E993E00E94654160E08EE793E00E945E
:10318000654161E08BE693E00E94654160E08EE579
:1031900093E00E94654160E08AE493E00E9465410B
:1031A00099C500911D0310911E0394E0F12C40E09D
:1031B000915031F1D8018C91282F2B7F213429F4A3
:1031C00011962C912133E1F408C08035C9F4F8013F
:1031D000818180538A3048F013C0813421F08534D6
:1031E00021F441E002C0FF24F39498012E5F3F4F89
:1031F00089012F5F3F4FD8018C918032C9F3D8CF1E
:1032000041110E94AA35FF2021F086E493E00E943C
:103210008835C8010E9443375DC50E9452765AC561
:1032200081E080937D0380937E030E94717652C576
:1032300082E40E94E832882351F0809181039091CA
:103240008203892B31F00E948642182F03C010E0C0
:1032500001C01FEF85E50E94E832882351F080917C
:10326000810390918203892B31F00E948642082FBE
:1032700003C000E001C00FEF82E50E94E83288231E
:1032800049F08091810390918203892B29F00E945B
:10329000864203C080E001C08FEF89830A831B83CD
:1032A000CE0101960E943D3315C50E949A42182F07
:1032B00087FD10C584E40E94E8328823E9F10E946A
:1032C000B1326B017C0101E020E030E0A9010E94F5
:1032D000438E811101C000E000931C0320E030E028
:1032E000A901C701B6010E94438E882329F1B4E0E9
:1032F0001B02F0011124E85EFC4FC082D182E28201
:10330000F38220E030E0A901609118037091190365
:1033100080911A0390911B030E94438E81110CC06F
:1033200080E090E0A0EEBFE3809318039093190330
:10333000A0931A03B0931B030E941785CBC40E946D
:103340009A4287FDC7C414E6E12E12E0F12E00E890
:103350001BE080E9C82E8BE0D82EF70181917F0118
:103360000E94E832882361F00E94B1320E94D29319
:10337000D8016D937D938D939C9313970E94368211
:103380000C5F1F4FC016D10641F7A4C40E949A4299
:1033900087FDA0C4B4E6EB2EB2E0FB2E00E81BE0F4
:1033A000F70181917F010E94E832882349F00E9451
:1033B000B132D80194966D937D938D939C9397979A
:1033C0000C5F1F4FBBE000391B0751F783C480918E
:1033D000490387FF02C00C94812580914A038E70B7
:1033E00011F00C9481254091B40B5091B50B609174
:1033F000B60B7091B70B86E393E00E943037409193
:10340000B80B5091B90B6091BA0B7091BB0B83E371
:1034100093E00E9430374091BC0B5091BD0B6091FE
:10342000BE0B7091BF0B80E393E00E9430378AE0BF
:103430000E9481354FC48091480381FF02C00C94E3
:10344000C7258091490381FF02C00C94C725809154
:103450004A038C7011F00C94C7253CC41F5FB4E084
:10346000EB0EF11C133009F4B4C9F60181916F0120
:103470000E94E832882391F30E94B132D7016D9304
:103480007D938D939C931397812F0E94C771E6CFF4
:1034900040906503509066036090670370906803E6
:1034A00020910302309104024091050250910602DE
:1034B000C301B2010E9489926EA77FA788AB99AB26
:1034C0008090690390906A03A0906B03B0906C03A6
:1034D00020910702309108024091090250910A029E
:1034E000C501B4010E9489926AAB7BAB8CAB9DABEA
:1034F000C0906D03D0906E03E0906F03F090700366
:1035000020910B0230910C0240910D0250910E025D
:10351000C701B6010E9489926EAB7FAB88AF99AFAD
:1035200020910F023091100240911102509112022D
:10353000C301B2010E9489922B013C012091130228
:10354000309114024091150250911602C501B40148
:103550000E9489924B015C01209117023091180260
:103560004091190250911A02C701B6010E94899236
:103570006B017C010E94AA3581E093E00E948835AE
:1035800083E50E94E832882321F00E948E448093D4
:10359000020280910202882319F083EE92E002C0B9
:1035A0008FED92E00E94883589EF92E00E94883585
:1035B0004EA55FA568A979A98CEE92E00E943037EC
:1035C0004AA95BA96CA97DA989EE92E00E943037D7
:1035D0004EA95FA968AD79AD86EE92E00E943037C2
:1035E00087EF92E00E9488358FEE92E00E94883546
:1035F000B301A2018CEE92E00E943037B501A40124
:1036000089EE92E00E943037B701A60186EE92E083
:103610000E9430378AE00E9481355CC383E50E94B6
:103620003133882309F456C30E94A13270932202D9
:10363000609321024FC30E949A42F82E87FD4AC32D
:1036400083E50E9431330F2D0F2C000C110B8823C2
:1036500069F10E94A132F801EE0FFF1FE050FE4F0A
:1036600071836083000F111F000F111FF801EC5BC5
:10367000FD4F7F01072E000C880B990B0E94498E8D
:103680002AE037ED43E25CE30E94A88EF801E85F90
:10369000FC4F20813181428153810E94A88ED70145
:1036A0006D937D938D939C93139714C30E94AA35B9
:1036B00085E40E94813580E38F0D0E948135F801F9
:1036C000EE0FFF1FE050FE4F6081718187ED92E0A9
:1036D0000E94B43685E20E9481358AE00E948135DD
:1036E000F9C280E50E94E832882309F4F3C260E061
:1036F00070E080E50E943842F82E6FEF7FEF83E59F
:103700000E9438428C010196039708F0E3C2F7FC4F
:10371000E1C28F2D0E941F35882339F00E94A73502
:1037200081E795E00E948835D5C20E94AD8260E0B5
:103730008F2D0E94FC5F0F3FBFEF1B0731F0013060
:10374000110571F000E010E00DC08F2D0E94A65F02
:1037500031E020E0892B09F030E0032F122F02C066
:1037600001E010E08F2D0E94A65F8017910709F4F9
:10377000B1C20E946237F6CF8AE50E9431338111CF
:1037800006C083E50E943133882309F450C00E94AB
:10379000B13220E030E040E050EC0E94438E87FFE1
:1037A00002C00C945F260E94B13220E030E040E07D
:1037B00050E40E94AF94181614F40C9458260E94FA
:1037C000B1326B017C0180917F038695869580FFE5
:1037D00022C020919C0B30919D0B40919E0B5091EB
:1037E0009F0BC701B6010E94A88E0E94CD93209125
:1037F0009D0330919E03260F371F30939E03209325
:103800009D032091060330910703620F731F70938D
:1038100007036093060380E50E94E832882311F4D1
:103820000C9466260E948E4481110C946626809129
:103830004A0387FF02C00C948D2680914B0383704E
:1038400011F00C948D260E94AA3540917903509175
:103850007A0360917B0370917C0388EB92E00E9475
:1038600030378AE00E94813535C285E40E94B586F2
:10387000811173C080E50E94E832882351F00E94D4
:10388000B13260934D0570934E0580934F05909330
:10389000500589E40E94E832882381F00E94B13209
:1038A0002CEA35EC47E25EE30E94A88E6093510556
:1038B00070935205809353059093540584E40E94BD
:1038C000E832882381F00E94B1322CEA35EC47E2DD
:1038D0005EE30E946593609355057093560580934F
:1038E0005705909358050E94AA3540914D05509177
:1038F0004E0560914F057091500584EB92E00E9457
:1039000030372CEA35EC47E25EE360915105709167
:10391000520580915305909154050E946593AB0127
:10392000BC0180EB92E00E9430372CEA35EC47E294
:103930005EE3609155057091560580915705909111
:1039400058050E94A88EAB01BC018CEA92E00E944F
:1039500030378AE00E948135BDC10E94A7358AE9CF
:1039600092E00E948835B6C180E50E94E832882343
:1039700051F00E94B132609333037093340380930B
:1039800035039093360389E40E94E832882381F05E
:103990000E94B1322CEA35EC47E25EE30E94A88E29
:1039A00060933703709338038093390390933A03FD
:1039B00084E40E94E832882381F00E94B1322CEA2C
:1039C00035EC47E25EE30E94659360933B0370939E
:1039D0003C0380933D0390933E030E94AA3540919F
:1039E000330350913403609135037091360386E9B7
:1039F00092E00E9430372CEA35EC47E25EE36091BA
:103A00003703709138038091390390913A030E94F3
:103A10006593AB01BC0182E992E00E9430372CEA49
:103A200035EC47E25EE360913B0370913C0380918B
:103A30003D0390913E030E94A88EAB01BC018EE82D
:103A400092E00E9430378AE00E94813543C183E5CD
:103A50000E94E832182F882371F00E94B1320E9430
:103A6000CD93709349026093480221E0672B09F0DF
:103A700020E02093410580E50E94E832882359F038
:103A80002091480230914902232B11F00E948E446C
:103A9000809341051FC111111DC10E94AA358BE7FA
:103AA00092E00E94883580914105882319F083E6D1
:103AB00092E002C08FE592E00E9488356091480252
:103AC000709149028AE692E00E94B43686E692E05E
:103AD0000E948835FFC00E94FE67FCC081E00E9402
:103AE00060800E942775F6C09091800390FD02C00F
:103AF00087E001C086E091FD8D7FFE0131961F01B8
:103B000092FD02C00C9495268B7F11F00C94BF2679
:103B100003E512E027E232E03FA72EA793E0C92E8B
:103B200096E0D92E7F01F801659175918591949168
:103B3000AEA5BFA58D909D90AD90BD90BFA7AEA73F
:103B4000A50194010E9488922B013C01F70160833A
:103B500071838283938320E030E040EA51EC0E943D
:103B6000AF9487FD0AC020E030E040EA51E4C30191
:103B7000B2010E94438E181634F4F601849118168F
:103B800014F40C94C226D7018D909D90AD90BD90F9
:103B90007D0120E030E040EA51ECC501B4010E9413
:103BA000AF9487FF02C00C94CD2620E030E040EABD
:103BB00051E4C501B4010E94438E181614F00C9410
:103BC000D5260C94CD260E94496284C00E9495554A
:103BD00081C061E083E50E949D4491E089270E94B5
:103BE000CA5678C0909305030E940C5910920503A1
:103BF000882309F46FC00E94AA3588E192E00E94F0
:103C0000883568C08BE40E943133882329F10E94F3
:103C1000B1326B017C0120E030E0A9010E94AF9439
:103C200087FD15C020E030E040E251E4C701B60155
:103C30000E94438E18165CF00E94AD82C092590516
:103C4000D0925A05E0925B05F0925C0543C08EEE7F
:103C500091E00E9488353EC00E94AA3540915905E6
:103C600050915A0560915B0570915C058DE092E082
:103C70000E9430378AE00E9481352CC081E0809319
:103C8000370260E083E50E949D44811123C00E94B9
:103C9000323D20C00E9449861DC0009199031091B9
:103CA0009A030023B9F00E94AA3584E50E94813569
:103CB000B8017727072E000C880B990B0E949A36C3
:103CC00080E20E9481358CED91E00E94883502C02F
:103CD0000E944986E0910403F0E0E25CF14F8081AC
:103CE000882339F089ED91E00E9488358AE00E94AE
:103CF00081352F96FFAD2F97F0939C030C940E27E0
:103D000011E022E02216310409F010E020E030E05A
:103D1000A901C701B6010E94438E881F8827881F0A
:103D20001813A4C080E090E0A0E8BFE38EAB9FAB87
:103D3000A8AFB9AF2EA53FA548A959A9C501B4019F
:103D40000E94889220E030E040E05FE30E94A88E6D
:103D50006EA77FA788AB99AB2AA93BA94CA95DA9FF
:103D6000C301B2010E94889220E030E040E05FE3AE
:103D70000E94A88E6AAB7BAB8CAB9DAB2EA53FA5FA
:103D800048A959A9CA01B9010E94A88E4B015C013A
:103D90002AA93BA94CA95DA9CA01B9010E94A88E14
:103DA0009B01AC01C501B4010E9489920E94F49468
:103DB0004B015C019B01AC01C701B6010E948892D6
:103DC0002B013C01A5019401C701B6010E94899213
:103DD0009B01AC01C301B2010E94A88E6B017C0162
:103DE00020E030E0A9010E94AF9487FD07C0C70121
:103DF000B6010E94F4942B013C0103C0412C512CCC
:103E000032016AA97BA98CA99DA99058A5019401AA
:103E10000E9465932EA93FA948AD59AD0E94A88E76
:103E2000A30192010E94A88E2EA53FA548A959A9D9
:103E30000E9489926B017C01A50194016EA57FA56A
:103E400088A999A90E9465932EA93FA948AD59ADAB
:103E50000E94A88EA30192010E94A88E2AA93BA9C4
:103E60004CA95DA90E9489920C94AC1080E090E06E
:103E7000A0E8BFEB5BCF0E94A73587E296E00E94E7
:103E8000883528CF20E030E0A901C701B6010E94A3
:103E9000438E882381F31EAA1FAA18AE19AEA7016C
:103EA000960150582EA73FA748AB59AB8EA99FA9A2
:103EB000A8ADB9ADB0588AAB9BABACABBDABCA013A
:103EC000B9010E94A88E4B015C012AA93BA94CA90B
:103ED0005DA9CA01B9010E94A88E9B01AC01C50170
:103EE000B4010E9489920E94F4942E966CAF7DAF2B
:103EF0008EAF9FAF2E9720912702309128024091DC
:103F0000290250912A022AAF3BAF4CAF5DAFA70107
:103F100096016AAD7BAD8CAD9DAD0E948992639692
:103F20006CAF7DAF8EAF9FAF639780912B02909166
:103F30002C02A0912D02B0912E0222968CAF9DAF43
:103F4000AEAFBFAF22972EA93FA948AD59ADBC0176
:103F5000CD010E94899267966CAF7DAF8EAF9FAF07
:103F60006797209188033091890340918A0350918B
:103F70008B0326962CAF3DAF4EAF5FAF269763966F
:103F80002CAD3DAD4EAD5FAD639726966CAD7DAD6E
:103F90008EAD9FAD26970E9488926B017C01809127
:103FA0008C0390918D03A0918E03B0918F032A967C
:103FB0008CAF9DAFAEAFBFAF2A9767962CAD3DAD2E
:103FC0004EAD5FAD6797BC01CD010E9488924B0159
:103FD0005C01A70196016EA57FA588A999A90E94F9
:103FE000A88E2B013C01A50194016AA97BA98CA98B
:103FF0009DA90E94A88E9B01AC01C301B2010E9441
:1040000089922B013C01A50194016EA57FA588A989
:1040100099A90E94A88E4B015C01A70196016AA98B
:104020007BA98CA99DA90E94A88E9B01AC01C5010A
:10403000B4010E948892A30192010E94FC926B013C
:104040007C0120E030E0A9010E94438E87FF0AC076
:104050002BED3FE049EC50E4C701B6010E94899284
:104060006B017C012BED3FE049EC50E4C701B60148
:104070000E94659320E030E040EC51E40E94A88E5D
:104080000E944F930E94D2938B01672B11F401E0A1
:1040900010E092E02916310451F42BED3FE049EC99
:1040A00050E4C701B6010E9488926B017C0120E0B8
:1040B00030E0A901C701B6010E94438E811128C0DA
:1040C00026962CAD3DAD4EAD5FAD26976AAD7BAD6E
:1040D0008CAD9DAD0E94438E81111AC02A962CADE5
:1040E0003DAD4EAD5FAD2A9722966CAD7DAD8EADE8
:1040F0009FAD22970E94438E81110AC008E110E013
:104100008BEDC82E8FE0D82E89ECE82E80E4F82EB7
:1041100020912F02309130024091310250913202B1
:1041200022962CAF3DAF4EAF5FAF229760919003C8
:104130007091910380919203909193030E948892D1
:104140002B013C01A70196012E966CAD7DAD8EAD85
:104150009FAD2E970E94A88E4B015C0120E030E0BD
:10416000A901C301B2010E94438E8823C9F0A501B1
:104170009401C501B4010E94A88E4B015C01A3010A
:104180009201C301B2010E94A88E9B01AC01C5013E
:10419000B4010E9489920E94F4944B015C010DC00D
:1041A00020E030E0A901C501B4010E94AF9487FF6F
:1041B00004C0B7FAB094B7F8B0942FE632E143E800
:1041C0005AE3C501B4010E94438E87FD1EC280914F
:1041D000940390919503A0919603B09197032A962A
:1041E0008CAF9DAFAEAFBFAF2A9720913302309115
:1041F0003402409135025091360226962CAF3DAFE5
:104200004EAF5FAF26972AE037ED43E25CE3609163
:1042100023027091240280912502909126020E942F
:10422000A88E6AAF7BAF8CAF9DAF60912102709179
:104230002202072E000C880B990B0E94498E9B01CD
:10424000AC016AAD7BAD8CAD9DAD0E94A88E6E8B2E
:104250007F8B888F998FC501B4010E94FE930E94C5
:10426000D2931B016017710708F41801B10180E0B7
:1042700090E00E94478E4B015C019B01AC01C7019D
:10428000B6010E9465936AAF7BAF8CAF9DAFA5016D
:104290009401C301B2010E9465936B966CAF7DAF30
:1042A0008EAF9FAF6B9726962CAD3DAD4EAD5FADFB
:1042B00026972A966CAD7DAD8EAD9FAD2A970E9454
:1042C0008892A50194010E9465936F966CAF7DAFB3
:1042D0008EAF9FAF6F972AAD3BAD4CAD5DADCA01C0
:1042E000B9010E94A88E20E030E040E05FE30E9428
:1042F000A88E9B01AC0160E070E080E89FE30E9423
:1043000088922A966CAF7DAF8EAF9FAF2A97229688
:104310008CAD9DADAEADBFAD229789879A87AB8737
:10432000BC8726962CAD3DAD4EAD5FAD26972D8753
:104330003E874F87588B0E9437619B01AC01285301
:104340003F4F4F4F5F4F2E962CAF3DAF4EAF5FAFFD
:104350002E974EA45FA468A879A841E050E05FAF13
:104360004EAF59E123965FAF23978EAD9FAD821577
:10437000930508F01EC10E94297B0E943761DC0171
:10438000CB012E962CAD3DAD4EAD5FAD2E97821B71
:10439000930BA40BB50BB7FD10C00E9437619B01B6
:1043A000AC0128533F4F4F4F5F4F2E962CAF3DAF80
:1043B0004EAF5FAF2E970E94623723963FAD239793
:1043C000315023963FAF2397332309F441C02AA9E4
:1043D0003BA94CA95DA92A966CAD7DAD8EAD9FAD74
:1043E0002A970E94A88E6B017C019201A3016AADFD
:1043F0007BAD8CAD9DAD0E94A88EA70196010E9459
:1044000089927B018C019201A3012A966CAD7DAD4E
:104410008EAD9FAD2A970E94A88E4B015C012AA900
:104420003BA94CA95DA96AAD7BAD8CAD9DAD0E9449
:10443000A88E9B01AC01C501B4010E9488922B019A
:104440003C01C701D8018AAB9BABACABBDAB51C043
:104450004EAD5FADBA0180E090E00E94478E2AAD7C
:104460003BAD4CAD5DAD0E94A88E4B015C010E943E
:1044700062936B017C01C501B4010E94EA944B0177
:104480005C01A70196016EA57FA588A999A90E9444
:10449000A88E2B013C012EA93FA948AD59ADC501FD
:1044A000B4010E94A88EA30192010E9489922B015F
:1044B0003C01A50194016EA57FA588A999A90E9438
:1044C000A88E4B015C012EA93FA948AD59ADC7018B
:1044D000B6010E94A88E9B01AC01C501B4010E94E7
:1044E00088926AAB7BAB8CAB9DAB59E123965FAFF7
:1044F00023979201A30163966CAD7DAD8EAD9FAD08
:1045000063970E94899269837A838B839C832AA90B
:104510003BA94CA95DA967966CAD7DAD8EAD9FADF5
:1045200067970E9489926D837E838F8398876B96AD
:104530002CAD3DAD4EAD5FAD6B9769857A858B85B2
:104540009C850E94899269877A878B879C876F9662
:104550002CAD3DAD4EAD5FAD6F976D857E858F8582
:1045600098890E9489926D877E878F87988BCE016C
:1045700001960E94E771C12CD12C00E8E02E0FE3D8
:10458000F02E8E010A5E1F4F9E01235F3F4FAE014A
:10459000475F5F4FBE016B5F7F4FCE0101960E9468
:1045A0005786882331F08EAD9FAD01969FAF8EAFB9
:1045B000DCCE80E1E8E8F3E0DE01119601900D9297
:1045C0008A95E1F7CE0101960E94E771C12CD12CAA
:1045D00010E8E12E1FE3F12E8E010A5E1F4F9E01AF
:1045E000235F3F4FAE01475F5F4FBE016B5F7F4F61
:1045F000CE0101960E94578680E1FE013196A7E226
:10460000B2E001900D928A95E1F70E9437616093C4
:1046100084037093850380938603909387035ACB1A
:104620000E94AD820E94A17281E080937D030E946E
:10463000717688E50E94E832182F89E50E94E832F9
:10464000082F8AE50E94E8321013E7C1181711F00D
:10465000312EE4C13324339411E091E09EAB80E12C
:10466000E7E2F2E0A8E8B3E001900D928A95E1F765
:1046700082E50E943133882369F00E94B1326B01D8
:104680007C0120E030E0A9010E94438E882309F4D8
:104690003FC006C0C12CD12CB0EAEB2EB0E4FB2EFB
:1046A000111103C0332009F40FC180917F0382FDF3
:1046B00009C060912F027091300280913102909177
:1046C000320203C060E070E0CB01A70196010E94B6
:1046D00089926093900370939103809392039093D7
:1046E000930320912F02309130024091310250917A
:1046F00032020E94AF9418165CF419821A821B824F
:104700001C82BE016F5F7F4F80E993E00E947C7343
:10471000112309F4D4C0332009F4CEC0109227022B
:10472000109228021092290210922A0210922B0253
:1047300010922C0210922D0210922E020E94C07331
:10474000E3E0F6E0A491AEAFE7EFF5E0C590D590D9
:10475000E590F490EBEFF5E085909590A590B490FE
:10476000A5019401C701B6010E94AF9418162CF45C
:10477000A7019601C501B40104C0A5019401C701B8
:10478000B6010E9465932B013C01EFEEF5E0259107
:104790003591459154912EA73FA748AB59ABEBEE0D
:1047A000F5E085919591A591B4918AAB9BABACABAB
:1047B000BDAB9C01AD016EA57FA588A999A90E94FA
:1047C000AF94181634F42AA89BA99AAF0CA91DA976
:1047D00005C02EA4AFA5AAAF08A919A9A3019201EB
:1047E000C301B2010E94A88E20E030E040E85FE300
:1047F0000E9489920E94F494222D3AADA8010E9451
:10480000A88E69837A838B839C83E4E0F6E014911D
:1048100040902F025090300260903102709032022E
:1048200020E030E040EC5FE3C501B4010E94A88EB7
:104830004B015C01612F110F770B880B990B0E94C4
:10484000498E9B01AC01C501B4010E94A88E4B01A9
:104850005C0120E030E040EC5FE3C701B6010E945C
:10486000A88E6B017C01BEAD6B2FBB0F770B880B45
:10487000990B0E94498E9B01AC01C701B6010E94B1
:10488000A88EFE0131966F0183017201A50194018A
:104890000E94C0720E94875510922702109228022F
:1048A0001092290210922A0210922B0210922C02CE
:1048B00010922D0210922E0280E00E94027433208A
:1048C00019F081E00E940274FEA9FF2309F49AC046
:1048D00080917F038370833029F00E94AA3588E19C
:1048E00096E0A2C00E94C07320912F023091300246
:1048F00040913102509132022EA73FA748AB59ABED
:1049000020917103309172034091730350917403AD
:1049100060E070E086E193E40E9488924B015C01C4
:10492000609388037093890380938A0390938B0329
:10493000209175033091760340917703509178036D
:1049400060E070E086E193E40E9488922B013C01D4
:1049500060938C0370938D0380938E0390938F03E9
:104960002091790330917A0340917B0350917C032D
:104970006EA57FA588A999A90E948892609390034B
:1049800070939103809392039093930322ED30E010
:1049900040EA50ECC301B2010E94AF9487FD40C0D1
:1049A00023E030E046E953E4C301B2010E94438EA4
:1049B0001816B4F127E137EB41ED58EBC501B4010E
:1049C0000E94AF9487FD2CC023E030E046E953E419
:1049D000C501B4010E94438E181614F119821A827F
:1049E0001B821C82DE0111966D01EEA4FFA408A9B2
:1049F00019A9A3019201C501B4010E94C07282E00D
:104A00000E9402740E94C07380917E0380937D0394
:104A10000E9488720E9427755DC9302E8EAB1FCE12
:104A20000E94AA3586E096E00E948835EBCF88E5A3
:104A30000E94E83281115F9889E50E94E832811175
:104A40008A988AE50E94E832882331F08091080133
:104A5000817080930601479885E40E94E83288239C
:104A600009F438C9129836C95F988A98809108016C
:104A7000817080930601479812982CC961E0802FBD
:104A80000E94FC5F6F2D802F0E94CE5F6F2D70E023
:104A9000802F0E9438601EC90E94AD8288E50E9466
:104AA000E832882331F05F9A80917F038E7F809374
:104AB0007F0389E50E94E832882331F08A9A809149
:104AC0007F038D7F80937F038AE50E94E8328823ED
:104AD00061F0809108018095817080930601479A6A
:104AE00080917F038B7F80937F0385E40E94E8326F
:104AF000882309F4EFC80E94B134ECC80E94DC841A
:104B0000E9C883E50E943133882391F00E94B132D5
:104B10006093B40B7093B50B8093B60B9093B70B67
:104B20006093BC0B7093BD0B8093BE0B9093BF0B37
:104B300080E50E943133882351F00E94B1326093A6
:104B4000B40B7093B50B8093B60B9093B70B82E5C3
:104B50000E943133882351F00E94B1326093B80B28
:104B60007093B90B8093BA0B9093BB0B84E50E94B2
:104B70003133882309F4AEC80E94B1326093BC0B74
:104B80007093BD0B8093BE0B9093BF0BA3C882E4C0
:104B90000E94E8328823C1F08091810390918203C2
:104BA000009739F04AE050E060E070E00E94C88C65
:104BB00003C060E070E0CB016093900B7093910BA9
:104BC0008093920B9093930B83E50E94E8328823A5
:104BD00051F00E94B1326093C00B7093C10B80936F
:104BE000C20B9093C30B84E50E94E832882351F0F6
:104BF0000E94B1326093C40B7093C50B8093C60BB7
:104C00009093C70B8AE40E94E832882309F462C8B3
:104C10000E94B1326B017C012AE037ED43E25CE394
:104C20000E94AF9487FD3DC02AE939E949E95EE376
:104C3000C701B6010E94438E18169CF1C09214055C
:104C4000D0921505E0921605F092170560918C0B35
:104C500070918D0B80918E0B90918F0B0E94478EDF
:104C60004B015C0123EF34E045E35FE3C701B6018C
:104C70000E94A88E9B01AC01C501B4010E94A88EC0
:104C800029E732E84AE550E40E94A88E0E94F49495
:104C900060932C0570932D0580932E0590932F051E
:104CA00019C80E94A73581E193E00E94883512C897
:104CB000C12CD12CE12C30E4F32E0C94E31BC12C3D
:104CC000D12CE12C20ECF22E0C94E31BA7019601D1
:104CD0006091790370917A0380917B0390917C03BA
:104CE0000E9489926093790370937A0380937B0387
:104CF00090937C030E94AA354091790350917A03E6
:104D000060917B0370917C0387EC92E00E943037C6
:104D10008AE00E9481350C94171C82E50E94E832DB
:104D200081110C94231C0C946A1E2AEE32E081FF40
:104D300003C04CEE52E002C04EEF52E080FF03C0D1
:104D40008EEE92E002C08EEF92E03F932F935F933E
:104D50004F939F938F9383E292E09F938F933F9221
:104D60002F920E94158E0E94AA35C1010E944337DE
:104D70000FB6F894DEBF0FBECDBF0C946A1E2EEFA7
:104D800032E0D5CFB7FAB094B7F8B094F70180828B
:104D90009182A282B3820C94C31D0E94A73585E341
:104DA00092E00E9488350C946A1E0C5F1F4FFFEF43
:104DB000CF1ADF0A2FE532E02017310711F00C94EB
:104DC000931D8CE0E82E83E0F82E10E0F101819134
:104DD0009191A191B1911F01F70181939193A193B9
:104DE000B1937F01812F0E94C7711F5F133071F74C
:104DF0000E9427750C946A1E8EA59FA5A8A9B9A923
:104E00008093230290932402A0932502B09326025C
:104E1000E12CF12C00EC1FE70C940613C25ADF4F73
:104E20000FB6F894DEBF0FBECDBFDF91CF911F91BB
:104E30000F91FF90EF90DF90CF90BF90AF909F9039
:104E40008F907F906F905F904F903F902F9008953C
:104E50002F923F924F925F926F927F928F929F928A
:104E6000AF92BF92CF92DF92EF92FF920F931F9378
:104E7000CF93DF93CDB7DEB764970FB6F894DEBF5C
:104E80000FBECDBF8FEF9FEF909389008093880076
:104E90000AE00983212C312C78948091EF039091C2
:104EA000F003A091F103B091F203892B8A2B8B2B95
:104EB00071F08091400290914102A0914202B09124
:104EC0004302892B8A2B8B2B09F082C2DFC1809190
:104ED000E30D8823D1F01092E30D8091E10D9091C4
:104EE000E20D892B31F31092A7031092E20D10927C
:104EF000E10D9091080E8091090E9817D1F28091E2
:104F0000090E8F5F8F708093090E8091E10D909153
:104F1000E20D892B71F24091EB035091EC0360910B
:104F2000ED037091EE038091E7039091E803A09167
:104F3000E903B091EA030091DD0310E020E030E0E6
:104F4000841B950BA60BB70B081719072A073B07FD
:104F500010F4D901C801E82F840F951FA61FB71FB1
:104F60008093EB039093EC03A093ED03B093EE03D7
:104F70001C8A1B8AF1E00091B2031091B3032091C7
:104F8000B4033091B5038091C2039091C303A09103
:104F9000C403B091C503080F191F2A1F3B1F0093BC
:104FA000C2031093C3032093C4033093C50337FD9A
:104FB00031C080919F03082E000C990BAA0BBB0BEC
:104FC0004091F00D5091F10D6091F20D7091F30D43
:104FD000840F951FA61FB71F8093F00D9093F10DBE
:104FE000A093F20DB093F30D8091AE039091AF03B7
:104FF000A091B003B091B103B901A801481B590BAE
:105000006A0B7B0B4093C2035093C3036093C403AA
:105010007093C5034091B6035091B7036091B803F4
:105020007091B9038091C6039091C703A091C80302
:10503000B091C903480F591F6A1F7B1F4093C603D5
:105040005093C7036093C8037093C90377FD31C0C1
:105050008091A003082E000C990BAA0BBB0BC090EB
:10506000F40DD090F50DE090F60DF090F70D8C0D4D
:105070009D1DAE1DBF1D8093F40D9093F50DA09363
:10508000F60DB093F70D8091AE039091AF03A09110
:10509000B003B091B1034A015B01881A990AAA0AC8
:1050A000BB0A8092C6039092C703A092C803B09235
:1050B000C903C090BA03D090BB03E090BC03F0904A
:1050C000BD038091CA039091CB03A091CC03B09112
:1050D000CD038C0D9D1DAE1DBF1D8093CA03909303
:1050E000CB03A093CC03B093CD03B7FD31C0C090E8
:1050F000A1030C2C000CDD08EE08FF088090F80DD1
:105100009090F90DA090FA0DB090FB0DC80CD91C31
:10511000EA1CFB1CC092F80DD092F90DE092FA0D3A
:10512000F092FB0DC090AE03D090AF03E090B003BF
:10513000F090B1034C015D018C189D08AE08BF08CA
:105140008092CA039092CB03A092CC03B092CD037D
:105150008090CE039090CF03A090D003B090D10365
:10516000C090BE03D090BF03E090C003F090C10395
:10517000C80CD91CEA1CFB1CC092CE03D092CF03F2
:10518000E092D003F092D103F7FC3AC08090A203E2
:10519000082C000C9908AA08BB084090FC0D509000
:1051A000FD0D6090FE0D7090FF0D840C951CA61CEB
:1051B000B71C8092FC0D9092FD0DA092FE0DB09256
:1051C000FF0D8090AE039090AF03A090B003B0901D
:1051D000B103C818D908EA08FB08C092CE03D092E0
:1051E000CF03E092D003F092D103E090E30BF09074
:1051F000DC03E3FE02C0FA9401C0F394F092DC03F6
:10520000F1110CC0E0908400F0908500AB88BC8860
:10521000EA18FB08F2E0EF16F104A0F337FF889AD2
:1052200077FF8E9AB7FD07C0F0910B01F095F870EB
:10523000F0930901419A80908400909085009C8AA7
:105240008B8AE0908400F0908500AB88BC88EA18D7
:10525000FB08F2E0EF16F104A0F337FF889877FF20
:105260008E98B7FD06C080910B018870809309016C
:105270004198EE2331F080908400909085009C8AC4
:105280008B8AE150F0E009F076CE13CE8091DB03FB
:10529000882309F454C08090EB039090EC03A09015
:1052A000ED03B090EE03C090D703D090D803E09008
:1052B000D903F090DA034091DC03C814D904EA045E
:1052C000FB0480F48091A8039091A9032091AC0382
:1052D0003091AD032817390728F441504093DC037F
:1052E000019714C08C149D04AE04BF04E0F48091B7
:1052F000A8039091A9032091AA033091AB038217D0
:10530000930788F44F5F4093DC0301969093A903C1
:105310008093A80340913C0250913D0260913E026F
:1053200070913F020FC0AA24AA94BA2C6501A092E2
:105330003C02B0923D02C0923E02D0923F024FEF3B
:105340005FEFBA018091DC0387FD05C0169A80E00B
:1053500090E021E01FC01698FACF222301F1149AA1
:1053600080918400909185002091DC0327FF21C06B
:105370002F5F2093DC032091840030918500281B4F
:10538000390B22303105B8F314982091DC03211138
:1053900012C020E03091DC033111DFCF11C0209129
:1053A000840030918500281B390B22303105B8F379
:1053B000D6CF2150DECF8091840090918500E9CF37
:1053C0004093400250934102609342027093430223
:1053D0008091EF039091F003A091F103B091F2035B
:1053E000892B8A2B8B2B09F086C6A091E10DB091F9
:1053F000E20D109711F40C949A328090EB03909088
:10540000EC03A090ED03B090EE034091E7035091C0
:10541000E8036091E9037091EA0384169506A606F5
:10542000B706D8F01092A7031092E20D1092E10D8A
:105430009091080E8091090E981711F40C949A32ED
:105440008091090E8F5F8F708093090E00EDC02E42
:1054500007E0D02EE12CF12C2AC44091E3035091B7
:10546000E4036091E5037091E603481559056A0568
:105470007B0508F4A6C14091DF035091E0036091E1
:10548000E1037091E203D5960D911D912D913C9110
:10549000D897401751076207730708F073C1411589
:1054A00051056105710549F48090A3039090A40310
:1054B000A090A503B090A6036BC1F12C0A81842EA5
:1054C000952F862F1B81FE81EF8138852985BC8031
:1054D000CD80E091DD0DE89DC12CFF273091DE0DE0
:1054E000389DC00CF11D1090DF0D189CF00DE99F48
:1054F000C00CF11D399FF00DE89FF00D1C2DBF2E43
:105500001C9DE12D332722271F9FE00D311D2F1DEC
:10551000BC9CE00D311D2F1DBF9E300D211D132F92
:10552000B22E1C9D012D332722271F9F000D311DF8
:105530002F1DBC9C000D311D2F1DBF9E300D211D48
:10554000132FB22EEE278090A3039091A403809195
:10555000A5030090FF030F2809F483C03091FB03DB
:10556000319FE1198F089F098F092091FC03219F2A
:10557000E01981089F098F090091FD03019F8018A0
:1055800091098F093B9DE01981089F098F092B9D87
:10559000801891098F090B9D901981091C9D012D7F
:1055A000332722271F9F000D311D2F1DBC9C000D8E
:1055B000311D2F1DBF9E300D211D132FB22E309196
:1055C000F703319FE10D8F1C9F1D8F1D2091F80364
:1055D000219FE00D811C9F1D8F1D0091F903019FEC
:1055E000800C911D8F1D3B9DE00D811C9F1D8F1D0B
:1055F0002B9D800C911D8F1D0B9D900D811D1C9D61
:10560000012D332722271F9F000D311D2F1DBC9C0C
:10561000000D311D2F1DBF9E300D211D132FB22EE9
:105620003091F303319FE1198F089F098F09209171
:10563000F403219FE01981089F098F090091F50368
:10564000019F801891098F093B9DE01981089F09EE
:105650008F092B9D801891098F090B9D9019810945
:1056600082C03091FB03319FE10D8F1C9F1D8F1D68
:105670002091FC03219FE00D811C9F1D8F1D009137
:10568000FD03019F800C911D8F1D3B9DE00D811C32
:105690009F1D8F1D2B9D800C911D8F1D0B9D900DAF
:1056A000811D1C9D012D332722271F9F000D311DB9
:1056B0002F1DBC9C000D311D2F1DBF9E300D211DC7
:1056C000132FB22E3091F703319FE1198F089F09F4
:1056D0008F092091F803219FE01981089F098F0904
:1056E0000091F903019F801891098F093B9DE019F2
:1056F00081089F098F092B9D801891098F090B9DA7
:10570000901981091C9D012D332722271F9F000D11
:10571000311D2F1DBC9C000D311D2F1DBF9E300D56
:10572000211D132FB22E3091F303319FE10D8F1CF9
:105730009F1D8F1D2091F403219FE00D811C9F1D53
:105740008F1D0091F503019F800C911D8F1D3B9DC6
:10575000E00D811C9F1D8F1D2B9D800C911D8F1DA9
:105760000B9D900D811D1124CD82BC820A831B8369
:10577000FE83EF8338872987912C992AA12CB12C9D
:10578000A82A06C0D1968D909D90AD90BC90D497DC
:105790000090DE0304C0880C991CAA1CBB1C0A9450
:1057A000D2F787E79EE001E00A8BFC010591159195
:1057B00025913491081519052A053B0508F412C5F1
:1057C0001EC54090D7035090D8036090D9037090C5
:1057D000DA03481459046A047B0408F0CEC18091AE
:1057E000D603811120C0FD01EF5BFF4FE080F18007
:1057F0000281138178962081318142815381D19633
:105800006D917D918D919C91D4970E94DE7F31E0C6
:105810003093D603E091E10DF091E20D81A992A9B8
:10582000A3A9B4A991C14091D2035091D30360912F
:10583000D4037091D503D9960D911D912D913C9172
:10584000DC97401751076207730708F076C14115CE
:1058500051056105710549F44091A3035091A403DA
:105860006091A5037091A60365C1F0E0EA85842FDD
:10587000252F962FBB85AC857D856E855F854889F4
:1058800039895091DD0D589F712D66274091DE0DAD
:10589000489F700D611D1090DF0D189E600D529F86
:1058A000700D611D429F600D599F600DB72FA62F8F
:1058B000B79F512D44273327B69F500D411D3F1FE1
:1058C000A79F500D411D3F1FA69F400D311DB42FB6
:1058D000A32FB79FE12D44273327B69FE00D411D2D
:1058E0003F1FA79FE00D411D3F1FA69F400D311D8B
:1058F000B42FA32F55278091A3032091A403909147
:10590000A5030090FF030F2A09F483C04091FB0315
:105910004B9F51198F0B2F0B9F0B3091FC033B9F1B
:10592000501981092F0B9F0BE091FD03EB9F80190C
:1059300021099F0B4A9F501981092F0B9F0B3A9FFA
:10594000801921099F0BEA9F20199109B79FE12D2A
:1059500044273327B69FE00D411D3F1FA79FE00D51
:10596000411D3F1FA69F400D311DB42FA32F409115
:10597000F7034B9F510D8F1F2F1F9F1F3091F8036F
:105980003B9F500D811D2F1F9F1FE091F903EB9F3F
:10599000800D211D9F1F4A9F500D811D2F1F9F1F8E
:1059A0003A9F800D211D9F1FEA9F200D911DB79FDB
:1059B000E12D44273327B69FE00D411D3F1FA79FD0
:1059C000E00D411D3F1FA69F400D311DB42FA32F99
:1059D0004091F3034B9F51198F0B2F0B9F0B30916D
:1059E000F4033B9F501981092F0B9F0BE091F503A6
:1059F000EB9F801921099F0B4A9F501981092F0B9A
:105A00009F0B3A9F801921099F0BEA9F201991094A
:105A100082C04091FB034B9F510D8F1F2F1F9F1F73
:105A20003091FC033B9F500D811D2F1F9F1FE09164
:105A3000FD03EB9F800D211D9F1F4A9F500D811D6F
:105A40002F1F9F1F3A9F800D211D9F1FEA9F200D32
:105A5000911DB79FE12D44273327B69FE00D411DCF
:105A60003F1FA79FE00D411D3F1FA69F400D311D09
:105A7000B42FA32F4091F7034B9F51198F0B2F0B7E
:105A80009F0B3091F8033B9F501981092F0B9F0BFF
:105A9000E091F903EB9F801921099F0B4A9F501950
:105AA00081092F0B9F0B3A9F801921099F0BEA9FB9
:105AB00020199109B79FE12D44273327B69FE00DA8
:105AC000411D3F1FA79FE00D411D3F1FA69F400D99
:105AD000311DB42FA32F4091F3034B9F510D8F1F06
